{
  "contractName": "ZombieHelper",
  "abi": [
    {
      "anonymous": false,
      "inputs": [
        {
          "indexed": false,
          "internalType": "uint256",
          "name": "zombieId",
          "type": "uint256"
        },
        {
          "indexed": false,
          "internalType": "string",
          "name": "name",
          "type": "string"
        },
        {
          "indexed": false,
          "internalType": "uint256",
          "name": "dna",
          "type": "uint256"
        }
      ],
      "name": "NewZombie",
      "type": "event"
    },
    {
      "anonymous": false,
      "inputs": [
        {
          "indexed": true,
          "internalType": "address",
          "name": "previousOwner",
          "type": "address"
        },
        {
          "indexed": true,
          "internalType": "address",
          "name": "newOwner",
          "type": "address"
        }
      ],
      "name": "OwnershipTransferred",
      "type": "event"
    },
    {
      "inputs": [
        {
          "internalType": "string",
          "name": "_name",
          "type": "string"
        }
      ],
      "name": "createRandomZombie",
      "outputs": [],
      "stateMutability": "nonpayable",
      "type": "function"
    },
    {
      "inputs": [
        {
          "internalType": "uint256",
          "name": "_zombieId",
          "type": "uint256"
        },
        {
          "internalType": "uint256",
          "name": "_kittyId",
          "type": "uint256"
        }
      ],
      "name": "feedOnKitty",
      "outputs": [],
      "stateMutability": "nonpayable",
      "type": "function"
    },
    {
      "inputs": [],
      "name": "owner",
      "outputs": [
        {
          "internalType": "address",
          "name": "",
          "type": "address"
        }
      ],
      "stateMutability": "view",
      "type": "function"
    },
    {
      "inputs": [],
      "name": "renounceOwnership",
      "outputs": [],
      "stateMutability": "nonpayable",
      "type": "function"
    },
    {
      "inputs": [
        {
          "internalType": "address",
          "name": "_address",
          "type": "address"
        }
      ],
      "name": "setKittyContractAddress",
      "outputs": [],
      "stateMutability": "nonpayable",
      "type": "function"
    },
    {
      "inputs": [
        {
          "internalType": "address",
          "name": "newOwner",
          "type": "address"
        }
      ],
      "name": "transferOwnership",
      "outputs": [],
      "stateMutability": "nonpayable",
      "type": "function"
    },
    {
      "inputs": [
        {
          "internalType": "uint256",
          "name": "",
          "type": "uint256"
        }
      ],
      "name": "zombieToOwner",
      "outputs": [
        {
          "internalType": "address",
          "name": "",
          "type": "address"
        }
      ],
      "stateMutability": "view",
      "type": "function"
    },
    {
      "inputs": [
        {
          "internalType": "uint256",
          "name": "",
          "type": "uint256"
        }
      ],
      "name": "zombies",
      "outputs": [
        {
          "internalType": "string",
          "name": "name",
          "type": "string"
        },
        {
          "internalType": "uint256",
          "name": "dna",
          "type": "uint256"
        },
        {
          "internalType": "uint32",
          "name": "level",
          "type": "uint32"
        },
        {
          "internalType": "uint32",
          "name": "readyTime",
          "type": "uint32"
        },
        {
          "internalType": "uint16",
          "name": "winCount",
          "type": "uint16"
        },
        {
          "internalType": "uint16",
          "name": "lossCount",
          "type": "uint16"
        }
      ],
      "stateMutability": "view",
      "type": "function"
    },
    {
      "inputs": [],
      "name": "withdraw",
      "outputs": [],
      "stateMutability": "nonpayable",
      "type": "function"
    },
    {
      "inputs": [
        {
          "internalType": "uint256",
          "name": "_fee",
          "type": "uint256"
        }
      ],
      "name": "setLevelUpFee",
      "outputs": [],
      "stateMutability": "nonpayable",
      "type": "function"
    },
    {
      "inputs": [
        {
          "internalType": "uint256",
          "name": "_zombieId",
          "type": "uint256"
        }
      ],
      "name": "levelUp",
      "outputs": [],
      "stateMutability": "payable",
      "type": "function"
    },
    {
      "inputs": [
        {
          "internalType": "uint256",
          "name": "_zombieId",
          "type": "uint256"
        },
        {
          "internalType": "string",
          "name": "_newName",
          "type": "string"
        }
      ],
      "name": "changeName",
      "outputs": [],
      "stateMutability": "nonpayable",
      "type": "function"
    },
    {
      "inputs": [
        {
          "internalType": "uint256",
          "name": "_zombieId",
          "type": "uint256"
        },
        {
          "internalType": "uint256",
          "name": "_newDna",
          "type": "uint256"
        }
      ],
      "name": "changeDna",
      "outputs": [],
      "stateMutability": "nonpayable",
      "type": "function"
    },
    {
      "inputs": [
        {
          "internalType": "address",
          "name": "_owner",
          "type": "address"
        }
      ],
      "name": "getZombiesByOwner",
      "outputs": [
        {
          "internalType": "uint256[]",
          "name": "",
          "type": "uint256[]"
        }
      ],
      "stateMutability": "view",
      "type": "function"
    }
  ],
  "bytecode": "0x60806040526010600155600154600a6200001a91906200018a565b6002556201518060035566038d7ea4c680006008553480156200003c57600080fd5b506200005d620000516200006360201b60201c565b6200006b60201b60201c565b6200030d565b600033905090565b60008060009054906101000a900473ffffffffffffffffffffffffffffffffffffffff169050816000806101000a81548173ffffffffffffffffffffffffffffffffffffffff021916908373ffffffffffffffffffffffffffffffffffffffff1602179055508173ffffffffffffffffffffffffffffffffffffffff168173ffffffffffffffffffffffffffffffffffffffff167f8be0079c531659141344cd1fd0a4f28419497f9722a3daafe3b4186f6b6457e060405160405180910390a35050565b6000808291508390505b60018511156200018157808604811115620001595762000158620002d1565b5b6001851615620001695780820291505b8081029050620001798562000300565b945062000139565b94509492505050565b60006200019782620002c7565b9150620001a483620002c7565b9250620001d37fffffffffffffffffffffffffffffffffffffffffffffffffffffffffffffffff8484620001db565b905092915050565b600082620001ed5760019050620002c0565b81620001fd5760009050620002c0565b8160018114620002165760028114620002215762000257565b6001915050620002c0565b60ff841115620002365762000235620002d1565b5b8360020a91508482111562000250576200024f620002d1565b5b50620002c0565b5060208310610133831016604e8410600b8410161715620002915782820a9050838111156200028b576200028a620002d1565b5b620002c0565b620002a084848460016200012f565b92509050818404811115620002ba57620002b9620002d1565b5b81810290505b9392505050565b6000819050919050565b7f4e487b7100000000000000000000000000000000000000000000000000000000600052601160045260246000fd5b60008160011c9050919050565b611fed806200031d6000396000f3fe6080604052600436106100dd5760003560e01c80635faf28801161007f5780638da5cb5b116100595780638da5cb5b1461028c578063c39cbef1146102b7578063ccf670f8146102e0578063f2fde38b14610309576100dd565b80635faf288014610223578063715018a61461024c5780637bff0a0114610263576100dd565b80633ccfd60b116100bb5780633ccfd60b146101695780634412e10414610180578063528b7b8f146101bd5780635f4623f1146101fa576100dd565b80630ce90ec2146100e257806317a7f4cc146100fe5780632052465e14610127575b600080fd5b6100fc60048036038101906100f79190611774565b610332565b005b34801561010a57600080fd5b50610125600480360381019061012091906117f1565b6103cd565b005b34801561013357600080fd5b5061014e60048036038101906101499190611774565b6104fa565b60405161016096959493929190611aa7565b60405180910390f35b34801561017557600080fd5b5061017e61060a565b005b34801561018c57600080fd5b506101a760048036038101906101a2919061162f565b6106dc565b6040516101b49190611a85565b60405180910390f35b3480156101c957600080fd5b506101e460048036038101906101df9190611774565b61087b565b6040516101f19190611a6a565b60405180910390f35b34801561020657600080fd5b50610221600480360381019061021c919061162f565b6108ae565b005b34801561022f57600080fd5b5061024a600480360381019061024591906117f1565b61096e565b005b34801561025857600080fd5b50610261610b0d565b005b34801561026f57600080fd5b5061028a60048036038101906102859190611733565b610b95565b005b34801561029857600080fd5b506102a1610c16565b6040516102ae9190611a6a565b60405180910390f35b3480156102c357600080fd5b506102de60048036038101906102d9919061179d565b610c3f565b005b3480156102ec57600080fd5b5061030760048036038101906103029190611774565b610dee565b005b34801561031557600080fd5b50610330600480360381019061032b919061162f565b610e74565b005b600854341461034057600080fd5b6004818154811061037a577f4e487b7100000000000000000000000000000000000000000000000000000000600052603260045260246000fd5b9060005260206000209060030201600201600081819054906101000a900463ffffffff16809291906103ab90611e47565b91906101000a81548163ffffffff021916908363ffffffff1602179055505050565b6000600760009054906101000a900473ffffffffffffffffffffffffffffffffffffffff1673ffffffffffffffffffffffffffffffffffffffff1663e98b7f4d836040518263ffffffff1660e01b815260040161042a9190611b4f565b6101406040518083038186803b15801561044357600080fd5b505afa158015610457573d6000803e3d6000fd5b505050506040513d601f19601f8201168201806040525081019061047b9190611658565b909192939495969798509091929394959697509091929394959650909192939495509091929394509091929350909192509091509050809150506104f583826040518060400160405280600581526020017f6b69747479000000000000000000000000000000000000000000000000000000815250610f6c565b505050565b6004818154811061050a57600080fd5b906000526020600020906003020160009150905080600001805461052d90611dcc565b80601f016020809104026020016040519081016040528092919081815260200182805461055990611dcc565b80156105a65780601f1061057b576101008083540402835291602001916105a6565b820191906000526020600020905b81548152906001019060200180831161058957829003601f168201915b5050505050908060010154908060020160009054906101000a900463ffffffff16908060020160049054906101000a900463ffffffff16908060020160089054906101000a900461ffff169080600201600a9054906101000a900461ffff16905086565b61061261112f565b73ffffffffffffffffffffffffffffffffffffffff16610630610c16565b73ffffffffffffffffffffffffffffffffffffffff1614610686576040517f08c379a000000000000000000000000000000000000000000000000000000000815260040161067d90611b2f565b60405180910390fd5b6000610690610c16565b90508073ffffffffffffffffffffffffffffffffffffffff166108fc479081150290604051600060405180830381858888f193505050501580156106d8573d6000803e3d6000fd5b5050565b60606000600660008473ffffffffffffffffffffffffffffffffffffffff1673ffffffffffffffffffffffffffffffffffffffff1681526020019081526020016000205467ffffffffffffffff81111561075f577f4e487b7100000000000000000000000000000000000000000000000000000000600052604160045260246000fd5b60405190808252806020026020018201604052801561078d5781602001602082028036833780820191505090505b5090506000805b600480549050811015610870578473ffffffffffffffffffffffffffffffffffffffff166005600083815260200190815260200160002060009054906101000a900473ffffffffffffffffffffffffffffffffffffffff1673ffffffffffffffffffffffffffffffffffffffff16141561085d5780838381518110610842577f4e487b7100000000000000000000000000000000000000000000000000000000600052603260045260246000fd5b602002602001018181525050818061085990611dfe565b9250505b808061086890611dfe565b915050610794565b508192505050919050565b60056020528060005260406000206000915054906101000a900473ffffffffffffffffffffffffffffffffffffffff1681565b6108b661112f565b73ffffffffffffffffffffffffffffffffffffffff166108d4610c16565b73ffffffffffffffffffffffffffffffffffffffff161461092a576040517f08c379a000000000000000000000000000000000000000000000000000000000815260040161092190611b2f565b60405180910390fd5b80600760006101000a81548173ffffffffffffffffffffffffffffffffffffffff021916908373ffffffffffffffffffffffffffffffffffffffff16021790555050565b60148281600482815481106109ac577f4e487b7100000000000000000000000000000000000000000000000000000000600052603260045260246000fd5b906000526020600020906003020160020160009054906101000a900463ffffffff1663ffffffff1610156109df57600080fd5b836005600082815260200190815260200160002060009054906101000a900473ffffffffffffffffffffffffffffffffffffffff1673ffffffffffffffffffffffffffffffffffffffff163373ffffffffffffffffffffffffffffffffffffffff1614610a4b57600080fd5b6005600086815260200190815260200160002060009054906101000a900473ffffffffffffffffffffffffffffffffffffffff1673ffffffffffffffffffffffffffffffffffffffff163373ffffffffffffffffffffffffffffffffffffffff1614610ab657600080fd5b8360048681548110610af1577f4e487b7100000000000000000000000000000000000000000000000000000000600052603260045260246000fd5b9060005260206000209060030201600101819055505050505050565b610b1561112f565b73ffffffffffffffffffffffffffffffffffffffff16610b33610c16565b73ffffffffffffffffffffffffffffffffffffffff1614610b89576040517f08c379a0000000000000000000000000000000000000000000000000000000008152600401610b8090611b2f565b60405180910390fd5b610b936000611137565b565b6000600660003373ffffffffffffffffffffffffffffffffffffffff1673ffffffffffffffffffffffffffffffffffffffff1681526020019081526020016000205414610be157600080fd5b6000610bec826111fb565b9050606481610bfb9190611e74565b81610c069190611cf0565b9050610c128282611240565b5050565b60008060009054906101000a900473ffffffffffffffffffffffffffffffffffffffff16905090565b6002828160048281548110610c7d577f4e487b7100000000000000000000000000000000000000000000000000000000600052603260045260246000fd5b906000526020600020906003020160020160009054906101000a900463ffffffff1663ffffffff161015610cb057600080fd5b836005600082815260200190815260200160002060009054906101000a900473ffffffffffffffffffffffffffffffffffffffff1673ffffffffffffffffffffffffffffffffffffffff163373ffffffffffffffffffffffffffffffffffffffff1614610d1c57600080fd5b6005600086815260200190815260200160002060009054906101000a900473ffffffffffffffffffffffffffffffffffffffff1673ffffffffffffffffffffffffffffffffffffffff163373ffffffffffffffffffffffffffffffffffffffff1614610d8757600080fd5b8360048681548110610dc2577f4e487b7100000000000000000000000000000000000000000000000000000000600052603260045260246000fd5b90600052602060002090600302016000019080519060200190610de69291906114d0565b505050505050565b610df661112f565b73ffffffffffffffffffffffffffffffffffffffff16610e14610c16565b73ffffffffffffffffffffffffffffffffffffffff1614610e6a576040517f08c379a0000000000000000000000000000000000000000000000000000000008152600401610e6190611b2f565b60405180910390fd5b8060088190555050565b610e7c61112f565b73ffffffffffffffffffffffffffffffffffffffff16610e9a610c16565b73ffffffffffffffffffffffffffffffffffffffff1614610ef0576040517f08c379a0000000000000000000000000000000000000000000000000000000008152600401610ee790611b2f565b60405180910390fd5b600073ffffffffffffffffffffffffffffffffffffffff168173ffffffffffffffffffffffffffffffffffffffff161415610f60576040517f08c379a0000000000000000000000000000000000000000000000000000000008152600401610f5790611b0f565b60405180910390fd5b610f6981611137565b50565b826005600082815260200190815260200160002060009054906101000a900473ffffffffffffffffffffffffffffffffffffffff1673ffffffffffffffffffffffffffffffffffffffff163373ffffffffffffffffffffffffffffffffffffffff1614610fd857600080fd5b600060048581548110611014577f4e487b7100000000000000000000000000000000000000000000000000000000600052603260045260246000fd5b9060005260206000209060030201905061102d81611476565b61103657600080fd5b600254846110449190611e74565b93506000600285836001015461105a9190611c69565b6110649190611cbf565b905060405160200161107590611a55565b604051602081830303815290604052805190602001208460405160200161109c9190611a3e565b6040516020818303038152906040528051906020012014156110df5760636064826110c79190611e74565b826110d29190611cf0565b6110dc9190611c69565b90505b61111e6040518060400160405280600681526020017f4e6f4e616d65000000000000000000000000000000000000000000000000000081525082611240565b6111278261149d565b505050505050565b600033905090565b60008060009054906101000a900473ffffffffffffffffffffffffffffffffffffffff169050816000806101000a81548173ffffffffffffffffffffffffffffffffffffffff021916908373ffffffffffffffffffffffffffffffffffffffff1602179055508173ffffffffffffffffffffffffffffffffffffffff168173ffffffffffffffffffffffffffffffffffffffff167f8be0079c531659141344cd1fd0a4f28419497f9722a3daafe3b4186f6b6457e060405160405180910390a35050565b6000808260405160200161120f9190611a3e565b6040516020818303038152906040528051906020012060001c9050600254816112389190611e74565b915050919050565b60046040518060c00160405280848152602001838152602001600163ffffffff168152602001600354426112749190611c69565b63ffffffff168152602001600061ffff168152602001600061ffff16815250908060018154018082558091505060019003906000526020600020906003020160009091909190915060008201518160000190805190602001906112d89291906114d0565b506020820151816001015560408201518160020160006101000a81548163ffffffff021916908363ffffffff16021790555060608201518160020160046101000a81548163ffffffff021916908363ffffffff16021790555060808201518160020160086101000a81548161ffff021916908361ffff16021790555060a082015181600201600a6101000a81548161ffff021916908361ffff16021790555050506000600160048054905061138d9190611cf0565b9050336005600083815260200190815260200160002060006101000a81548173ffffffffffffffffffffffffffffffffffffffff021916908373ffffffffffffffffffffffffffffffffffffffff160217905550600660003373ffffffffffffffffffffffffffffffffffffffff1673ffffffffffffffffffffffffffffffffffffffff168152602001908152602001600020600081548092919061143190611dfe565b91905055507f88f026aacbbecc90c18411df4b1185fd8d9be2470f1962f192bf84a27d0704b781848460405161146993929190611b6a565b60405180910390a1505050565b6000428260020160049054906101000a900463ffffffff1663ffffffff1611159050919050565b600354426114ab9190611c69565b8160020160046101000a81548163ffffffff021916908363ffffffff16021790555050565b8280546114dc90611dcc565b90600052602060002090601f0160209004810192826114fe5760008555611545565b82601f1061151757805160ff1916838001178555611545565b82800160010185558215611545579182015b82811115611544578251825591602001919060010190611529565b5b5090506115529190611556565b5090565b5b8082111561156f576000816000905550600101611557565b5090565b600061158661158184611bd9565b611ba8565b90508281526020810184848401111561159e57600080fd5b6115a9848285611d8a565b509392505050565b6000813590506115c081611f72565b92915050565b6000815190506115d581611f89565b92915050565b600082601f8301126115ec57600080fd5b81356115fc848260208601611573565b91505092915050565b60008135905061161481611fa0565b92915050565b60008151905061162981611fa0565b92915050565b60006020828403121561164157600080fd5b600061164f848285016115b1565b91505092915050565b6000806000806000806000806000806101408b8d03121561167857600080fd5b60006116868d828e016115c6565b9a505060206116978d828e016115c6565b99505060406116a88d828e0161161a565b98505060606116b98d828e0161161a565b97505060806116ca8d828e0161161a565b96505060a06116db8d828e0161161a565b95505060c06116ec8d828e0161161a565b94505060e06116fd8d828e0161161a565b93505061010061170f8d828e0161161a565b9250506101206117218d828e0161161a565b9150509295989b9194979a5092959850565b60006020828403121561174557600080fd5b600082013567ffffffffffffffff81111561175f57600080fd5b61176b848285016115db565b91505092915050565b60006020828403121561178657600080fd5b600061179484828501611605565b91505092915050565b600080604083850312156117b057600080fd5b60006117be85828601611605565b925050602083013567ffffffffffffffff8111156117db57600080fd5b6117e7858286016115db565b9150509250929050565b6000806040838503121561180457600080fd5b600061181285828601611605565b925050602061182385828601611605565b9150509250929050565b60006118398383611a11565b60208301905092915050565b61184e81611d24565b82525050565b600061185f82611c19565b6118698185611c3c565b935061187483611c09565b8060005b838110156118a557815161188c888261182d565b975061189783611c2f565b925050600181019050611878565b5085935050505092915050565b60006118bd82611c24565b6118c78185611c4d565b93506118d7818560208601611d99565b6118e081611f61565b840191505092915050565b60006118f682611c24565b6119008185611c5e565b9350611910818560208601611d99565b80840191505092915050565b6000611929602683611c4d565b91507f4f776e61626c653a206e6577206f776e657220697320746865207a65726f206160008301527f64647265737300000000000000000000000000000000000000000000000000006020830152604082019050919050565b600061198f600583611c5e565b91507f6b697474790000000000000000000000000000000000000000000000000000006000830152600582019050919050565b60006119cf602083611c4d565b91507f4f776e61626c653a2063616c6c6572206973206e6f7420746865206f776e65726000830152602082019050919050565b611a0b81611d42565b82525050565b611a1a81611d70565b82525050565b611a2981611d70565b82525050565b611a3881611d7a565b82525050565b6000611a4a82846118eb565b915081905092915050565b6000611a6082611982565b9150819050919050565b6000602082019050611a7f6000830184611845565b92915050565b60006020820190508181036000830152611a9f8184611854565b905092915050565b600060c0820190508181036000830152611ac181896118b2565b9050611ad06020830188611a20565b611add6040830187611a2f565b611aea6060830186611a2f565b611af76080830185611a02565b611b0460a0830184611a02565b979650505050505050565b60006020820190508181036000830152611b288161191c565b9050919050565b60006020820190508181036000830152611b48816119c2565b9050919050565b6000602082019050611b646000830184611a20565b92915050565b6000606082019050611b7f6000830186611a20565b8181036020830152611b9181856118b2565b9050611ba06040830184611a20565b949350505050565b6000604051905081810181811067ffffffffffffffff82111715611bcf57611bce611f32565b5b8060405250919050565b600067ffffffffffffffff821115611bf457611bf3611f32565b5b601f19601f8301169050602081019050919050565b6000819050602082019050919050565b600081519050919050565b600081519050919050565b6000602082019050919050565b600082825260208201905092915050565b600082825260208201905092915050565b600081905092915050565b6000611c7482611d70565b9150611c7f83611d70565b9250827fffffffffffffffffffffffffffffffffffffffffffffffffffffffffffffffff03821115611cb457611cb3611ea5565b5b828201905092915050565b6000611cca82611d70565b9150611cd583611d70565b925082611ce557611ce4611ed4565b5b828204905092915050565b6000611cfb82611d70565b9150611d0683611d70565b925082821015611d1957611d18611ea5565b5b828203905092915050565b6000611d2f82611d50565b9050919050565b60008115159050919050565b600061ffff82169050919050565b600073ffffffffffffffffffffffffffffffffffffffff82169050919050565b6000819050919050565b600063ffffffff82169050919050565b82818337600083830152505050565b60005b83811015611db7578082015181840152602081019050611d9c565b83811115611dc6576000848401525b50505050565b60006002820490506001821680611de457607f821691505b60208210811415611df857611df7611f03565b5b50919050565b6000611e0982611d70565b91507fffffffffffffffffffffffffffffffffffffffffffffffffffffffffffffffff821415611e3c57611e3b611ea5565b5b600182019050919050565b6000611e5282611d7a565b915063ffffffff821415611e6957611e68611ea5565b5b600182019050919050565b6000611e7f82611d70565b9150611e8a83611d70565b925082611e9a57611e99611ed4565b5b828206905092915050565b7f4e487b7100000000000000000000000000000000000000000000000000000000600052601160045260246000fd5b7f4e487b7100000000000000000000000000000000000000000000000000000000600052601260045260246000fd5b7f4e487b7100000000000000000000000000000000000000000000000000000000600052602260045260246000fd5b7f4e487b7100000000000000000000000000000000000000000000000000000000600052604160045260246000fd5b6000601f19601f8301169050919050565b611f7b81611d24565b8114611f8657600080fd5b50565b611f9281611d36565b8114611f9d57600080fd5b50565b611fa981611d70565b8114611fb457600080fd5b5056fea2646970667358221220e08d550aa12e2653054ecfa93289bb31c481d20c871fd6bb5c68fade351f67aa64736f6c63430008000033",
  "immutableReferences": {},
  "source": "pragma solidity >=0.7.0 <0.8.5;\r\n//SPDX-License-Identifier: UNLICENSED\r\n\r\nimport \"./zombiefeeding.sol\";\r\n\r\ncontract ZombieHelper is ZombieFeeding {\r\n\r\n    uint levelUpFee = 0.001 ether;\r\n\r\n    /*\r\n    Goal : Restreindre l'aptitude d'un zombie en fonction de son level\r\n\r\n    @Params \r\n\t    - parma 1 : uint : level a verifier \r\n\t    - param 2 : uint : zombie a verifier \r\n    @Returns \r\n\t    - out :  bool : true si le level du zombie est >= au param level sinon false \r\n    */\r\n    modifier aboveLevel(uint _level, uint _zombieId) {\r\n        require(zombies[_zombieId].level >= _level);\r\n        _;\r\n    }\r\n\r\n     function withdraw() external onlyOwner {\r\n        address payable _owner = payable(owner());\r\n        _owner.transfer(address(this).balance);\r\n    }\r\n\r\n    /*\r\n    Goal : Change fee price\r\n    Steps : \r\n\t    - Step 0 : Set new price\r\n    @Params \r\n\t    - parma 1 : uint : new price\r\n    */\r\n    function setLevelUpFee(uint _fee) external onlyOwner {\r\n        levelUpFee = _fee;\r\n    }\r\n\r\n    /*\r\n    Goal : Augmenter level zombie contre de l'ether\r\n    Steps : \r\n\t    - Step 0 : verification du montant d'ethers envoy par l'utilisateur puis augmentation du level\r\n    @Params \r\n\t    - parma 1 : uint : id du zombie\r\n    */\r\n    function levelUp(uint _zombieId) external payable {\r\n        require(msg.value == levelUpFee);\r\n        zombies[_zombieId].level++;\r\n    }\r\n\r\n    /*\r\n    Goal : Changer le nom du zombie a partir du niveau 2\r\n    Steps : \r\n\t    - Step 0 : verification du level et du propritaire\r\n        - Step 1 : modification du name\r\n    @Params \r\n\t    - parma 1 : uint : id du zombie\r\n\t    - param 2 : string : nouveau nom\r\n    */\r\n    function changeName(uint _zombieId, string memory _newName) external aboveLevel(2, _zombieId) onlyOwnerOf(_zombieId) {\r\n        require(msg.sender == zombieToOwner[_zombieId]);\r\n        zombies[_zombieId].name = _newName;\r\n    }\r\n\r\n    /*\r\n    Goal : Changer l'Adn du zombie a partir du niveau 20\r\n    Steps : \r\n\t    - Step 0 : verification du level et du propritaire\r\n        - Step 1 : modification du Dna\r\n    @Params \r\n\t    - parma 1 : uint : id du zombie\r\n\t    - param 2 : string : nouveau Dna\r\n    */\r\n    function changeDna(uint _zombieId, uint _newDna) external aboveLevel(20, _zombieId) onlyOwnerOf(_zombieId) {\r\n        require(msg.sender == zombieToOwner[_zombieId]);\r\n        zombies[_zombieId].dna = _newDna;\r\n    }\r\n\r\n    /*\r\n    Goal : Connaitre le nombre de zombie d'un utilisateur\r\n    Steps : \r\n\t    - Step 0 : initialisation tableau (uint) et compteur\r\n        - Step 1 : ajout dans le tableau si l'adress correspond au \"owner\" du zombie\r\n    @Params \r\n\t    - parma 1 : adress: adresse de l'utilisateur\r\n    @Returns\r\n        - out : uint[]\r\n    */\r\n    function getZombiesByOwner(address _owner) external view returns(uint[] memory){\r\n    uint[] memory result = new uint[](ownerZombieCount[_owner]);\r\n    uint counter = 0;\r\n    for (uint i = 0; i < zombies.length; i++) {\r\n      if (zombieToOwner[i] == _owner) {\r\n        result[counter] = i;\r\n        counter++;\r\n      }\r\n    }\r\n    return result;\r\n    }\r\n}",
  "sourcePath": "C:\\Users\\antoi\\OneDrive\\Bureau\\CryptoZombie_Truffle\\contracts\\zombiehelper.sol",
  "compiler": {
    "name": "solc",
    "version": "0.8.0+commit.c7dfd78e.Emscripten.clang"
  },
  "schemaVersion": "3.4.3",
  "updatedAt": "2021-11-04T09:47:02.417Z",
  "devdoc": {
    "kind": "dev",
    "methods": {
      "owner()": {
        "details": "Returns the address of the current owner."
      },
      "renounceOwnership()": {
        "details": "Leaves the contract without owner. It will not be possible to call `onlyOwner` functions anymore. Can only be called by the current owner. NOTE: Renouncing ownership will leave the contract without an owner, thereby removing any functionality that is only available to the owner."
      },
      "transferOwnership(address)": {
        "details": "Transfers ownership of the contract to a new account (`newOwner`). Can only be called by the current owner."
      }
    },
    "version": 1
  },
  "userdoc": {
    "kind": "user",
    "methods": {},
    "version": 1
  }
}