{
  "contractName": "ZombieOwnership",
  "abi": [
    {
      "anonymous": false,
      "inputs": [
        {
          "indexed": true,
          "internalType": "address",
          "name": "_owner",
          "type": "address"
        },
        {
          "indexed": true,
          "internalType": "address",
          "name": "_approved",
          "type": "address"
        },
        {
          "indexed": true,
          "internalType": "uint256",
          "name": "_tokenId",
          "type": "uint256"
        }
      ],
      "name": "Approval",
      "type": "event"
    },
    {
      "anonymous": false,
      "inputs": [
        {
          "indexed": false,
          "internalType": "uint256",
          "name": "zombieId",
          "type": "uint256"
        },
        {
          "indexed": false,
          "internalType": "string",
          "name": "name",
          "type": "string"
        },
        {
          "indexed": false,
          "internalType": "uint256",
          "name": "dna",
          "type": "uint256"
        }
      ],
      "name": "NewZombie",
      "type": "event"
    },
    {
      "anonymous": false,
      "inputs": [
        {
          "indexed": true,
          "internalType": "address",
          "name": "previousOwner",
          "type": "address"
        },
        {
          "indexed": true,
          "internalType": "address",
          "name": "newOwner",
          "type": "address"
        }
      ],
      "name": "OwnershipTransferred",
      "type": "event"
    },
    {
      "anonymous": false,
      "inputs": [
        {
          "indexed": true,
          "internalType": "address",
          "name": "_from",
          "type": "address"
        },
        {
          "indexed": true,
          "internalType": "address",
          "name": "_to",
          "type": "address"
        },
        {
          "indexed": true,
          "internalType": "uint256",
          "name": "_tokenId",
          "type": "uint256"
        }
      ],
      "name": "Transfer",
      "type": "event"
    },
    {
      "inputs": [
        {
          "internalType": "uint256",
          "name": "_zombieId",
          "type": "uint256"
        },
        {
          "internalType": "uint256",
          "name": "_targetId",
          "type": "uint256"
        }
      ],
      "name": "attack",
      "outputs": [],
      "stateMutability": "nonpayable",
      "type": "function"
    },
    {
      "inputs": [
        {
          "internalType": "uint256",
          "name": "_zombieId",
          "type": "uint256"
        },
        {
          "internalType": "uint256",
          "name": "_newDna",
          "type": "uint256"
        }
      ],
      "name": "changeDna",
      "outputs": [],
      "stateMutability": "nonpayable",
      "type": "function"
    },
    {
      "inputs": [
        {
          "internalType": "uint256",
          "name": "_zombieId",
          "type": "uint256"
        },
        {
          "internalType": "string",
          "name": "_newName",
          "type": "string"
        }
      ],
      "name": "changeName",
      "outputs": [],
      "stateMutability": "nonpayable",
      "type": "function"
    },
    {
      "inputs": [
        {
          "internalType": "string",
          "name": "_name",
          "type": "string"
        }
      ],
      "name": "createRandomZombie",
      "outputs": [],
      "stateMutability": "nonpayable",
      "type": "function"
    },
    {
      "inputs": [
        {
          "internalType": "uint256",
          "name": "_zombieId",
          "type": "uint256"
        },
        {
          "internalType": "uint256",
          "name": "_kittyId",
          "type": "uint256"
        }
      ],
      "name": "feedOnKitty",
      "outputs": [],
      "stateMutability": "nonpayable",
      "type": "function"
    },
    {
      "inputs": [
        {
          "internalType": "address",
          "name": "_owner",
          "type": "address"
        }
      ],
      "name": "getZombiesByOwner",
      "outputs": [
        {
          "internalType": "uint256[]",
          "name": "",
          "type": "uint256[]"
        }
      ],
      "stateMutability": "view",
      "type": "function"
    },
    {
      "inputs": [
        {
          "internalType": "uint256",
          "name": "_zombieId",
          "type": "uint256"
        }
      ],
      "name": "levelUp",
      "outputs": [],
      "stateMutability": "payable",
      "type": "function"
    },
    {
      "inputs": [],
      "name": "owner",
      "outputs": [
        {
          "internalType": "address",
          "name": "",
          "type": "address"
        }
      ],
      "stateMutability": "view",
      "type": "function"
    },
    {
      "inputs": [],
      "name": "renounceOwnership",
      "outputs": [],
      "stateMutability": "nonpayable",
      "type": "function"
    },
    {
      "inputs": [
        {
          "internalType": "address",
          "name": "_address",
          "type": "address"
        }
      ],
      "name": "setKittyContractAddress",
      "outputs": [],
      "stateMutability": "nonpayable",
      "type": "function"
    },
    {
      "inputs": [
        {
          "internalType": "uint256",
          "name": "_fee",
          "type": "uint256"
        }
      ],
      "name": "setLevelUpFee",
      "outputs": [],
      "stateMutability": "nonpayable",
      "type": "function"
    },
    {
      "inputs": [
        {
          "internalType": "address",
          "name": "newOwner",
          "type": "address"
        }
      ],
      "name": "transferOwnership",
      "outputs": [],
      "stateMutability": "nonpayable",
      "type": "function"
    },
    {
      "inputs": [],
      "name": "withdraw",
      "outputs": [],
      "stateMutability": "nonpayable",
      "type": "function"
    },
    {
      "inputs": [
        {
          "internalType": "uint256",
          "name": "",
          "type": "uint256"
        }
      ],
      "name": "zombieToOwner",
      "outputs": [
        {
          "internalType": "address",
          "name": "",
          "type": "address"
        }
      ],
      "stateMutability": "view",
      "type": "function"
    },
    {
      "inputs": [
        {
          "internalType": "uint256",
          "name": "",
          "type": "uint256"
        }
      ],
      "name": "zombies",
      "outputs": [
        {
          "internalType": "string",
          "name": "name",
          "type": "string"
        },
        {
          "internalType": "uint256",
          "name": "dna",
          "type": "uint256"
        },
        {
          "internalType": "uint32",
          "name": "level",
          "type": "uint32"
        },
        {
          "internalType": "uint32",
          "name": "readyTime",
          "type": "uint32"
        },
        {
          "internalType": "uint16",
          "name": "winCount",
          "type": "uint16"
        },
        {
          "internalType": "uint16",
          "name": "lossCount",
          "type": "uint16"
        }
      ],
      "stateMutability": "view",
      "type": "function"
    },
    {
      "inputs": [
        {
          "internalType": "address",
          "name": "_owner",
          "type": "address"
        }
      ],
      "name": "balanceOf",
      "outputs": [
        {
          "internalType": "uint256",
          "name": "",
          "type": "uint256"
        }
      ],
      "stateMutability": "view",
      "type": "function"
    },
    {
      "inputs": [
        {
          "internalType": "uint256",
          "name": "_tokenId",
          "type": "uint256"
        }
      ],
      "name": "ownerOf",
      "outputs": [
        {
          "internalType": "address",
          "name": "",
          "type": "address"
        }
      ],
      "stateMutability": "view",
      "type": "function"
    },
    {
      "inputs": [
        {
          "internalType": "address",
          "name": "_from",
          "type": "address"
        },
        {
          "internalType": "address",
          "name": "_to",
          "type": "address"
        },
        {
          "internalType": "uint256",
          "name": "_tokenId",
          "type": "uint256"
        }
      ],
      "name": "transferFrom",
      "outputs": [],
      "stateMutability": "payable",
      "type": "function"
    },
    {
      "inputs": [
        {
          "internalType": "address",
          "name": "_approved",
          "type": "address"
        },
        {
          "internalType": "uint256",
          "name": "_tokenId",
          "type": "uint256"
        }
      ],
      "name": "approve",
      "outputs": [],
      "stateMutability": "payable",
      "type": "function"
    }
  ],
  "bytecode": "0x60806040526010600155600154600a6200001a919062000194565b6002556201518060035566038d7ea4c6800060085560006009556046600a553480156200004657600080fd5b50620000676200005b6200006d60201b60201c565b6200007560201b60201c565b62000317565b600033905090565b60008060009054906101000a900473ffffffffffffffffffffffffffffffffffffffff169050816000806101000a81548173ffffffffffffffffffffffffffffffffffffffff021916908373ffffffffffffffffffffffffffffffffffffffff1602179055508173ffffffffffffffffffffffffffffffffffffffff168173ffffffffffffffffffffffffffffffffffffffff167f8be0079c531659141344cd1fd0a4f28419497f9722a3daafe3b4186f6b6457e060405160405180910390a35050565b6000808291508390505b60018511156200018b57808604811115620001635762000162620002db565b5b6001851615620001735780820291505b808102905062000183856200030a565b945062000143565b94509492505050565b6000620001a182620002d1565b9150620001ae83620002d1565b9250620001dd7fffffffffffffffffffffffffffffffffffffffffffffffffffffffffffffffff8484620001e5565b905092915050565b600082620001f75760019050620002ca565b81620002075760009050620002ca565b81600181146200022057600281146200022b5762000261565b6001915050620002ca565b60ff84111562000240576200023f620002db565b5b8360020a9150848211156200025a5762000259620002db565b5b50620002ca565b5060208310610133831016604e8410600b84101617156200029b5782820a905083811115620002955762000294620002db565b5b620002ca565b620002aa848484600162000139565b92509050818404811115620002c457620002c3620002db565b5b81810290505b9392505050565b6000819050919050565b7f4e487b7100000000000000000000000000000000000000000000000000000000600052601160045260246000fd5b60008160011c9050919050565b612a6980620003276000396000f3fe6080604052600436106101145760003560e01c80635faf2880116100a05780638da5cb5b116100645780638da5cb5b14610375578063c39cbef1146103a0578063ccf670f8146103c9578063e1fa7638146103f2578063f2fde38b1461041b57610114565b80635faf2880146102925780636352211e146102bb57806370a08231146102f8578063715018a6146103355780637bff0a011461034c57610114565b806323b872dd116100e757806323b872dd146101bc5780633ccfd60b146101d85780634412e104146101ef578063528b7b8f1461022c5780635f4623f11461026957610114565b8063095ea7b3146101195780630ce90ec21461013557806317a7f4cc146101515780632052465e1461017a575b600080fd5b610133600480360381019061012e9190611fc7565b610444565b005b61014f600480360381019061014a919061211f565b610562565b005b34801561015d57600080fd5b506101786004803603810190610173919061219c565b6105fd565b005b34801561018657600080fd5b506101a1600480360381019061019c919061211f565b61072a565b6040516101b3969594939291906124bd565b60405180910390f35b6101d660048036038101906101d19190611f78565b61083a565b005b3480156101e457600080fd5b506101ed61091e565b005b3480156101fb57600080fd5b5061021660048036038101906102119190611f4f565b6109f0565b604051610223919061249b565b60405180910390f35b34801561023857600080fd5b50610253600480360381019061024e919061211f565b610b8f565b6040516102609190612480565b60405180910390f35b34801561027557600080fd5b50610290600480360381019061028b9190611f4f565b610bc2565b005b34801561029e57600080fd5b506102b960048036038101906102b4919061219c565b610c82565b005b3480156102c757600080fd5b506102e260048036038101906102dd919061211f565b610e21565b6040516102ef9190612480565b60405180910390f35b34801561030457600080fd5b5061031f600480360381019061031a9190611f4f565b610e5e565b60405161032c9190612565565b60405180910390f35b34801561034157600080fd5b5061034a610ea7565b005b34801561035857600080fd5b50610373600480360381019061036e91906120de565b610f2f565b005b34801561038157600080fd5b5061038a610fb0565b6040516103979190612480565b60405180910390f35b3480156103ac57600080fd5b506103c760048036038101906103c29190612148565b610fd9565b005b3480156103d557600080fd5b506103f060048036038101906103eb919061211f565b611188565b005b3480156103fe57600080fd5b506104196004803603810190610414919061219c565b61120e565b005b34801561042757600080fd5b50610442600480360381019061043d9190611f4f565b6114bb565b005b806005600082815260200190815260200160002060009054906101000a900473ffffffffffffffffffffffffffffffffffffffff1673ffffffffffffffffffffffffffffffffffffffff163373ffffffffffffffffffffffffffffffffffffffff16146104b057600080fd5b82600b600084815260200190815260200160002060006101000a81548173ffffffffffffffffffffffffffffffffffffffff021916908373ffffffffffffffffffffffffffffffffffffffff160217905550818373ffffffffffffffffffffffffffffffffffffffff163373ffffffffffffffffffffffffffffffffffffffff167f8c5be1e5ebec7d5bd14f71427d1e84f3dd0314c0f7b2291e5b200ac8c7c3b92560405160405180910390a4505050565b600854341461057057600080fd5b600481815481106105aa577f4e487b7100000000000000000000000000000000000000000000000000000000600052603260045260246000fd5b9060005260206000209060030201600201600081819054906101000a900463ffffffff16809291906105db90612888565b91906101000a81548163ffffffff021916908363ffffffff1602179055505050565b6000600760009054906101000a900473ffffffffffffffffffffffffffffffffffffffff1673ffffffffffffffffffffffffffffffffffffffff1663e98b7f4d836040518263ffffffff1660e01b815260040161065a9190612565565b6101406040518083038186803b15801561067357600080fd5b505afa158015610687573d6000803e3d6000fd5b505050506040513d601f19601f820116820180604052508101906106ab9190612003565b9091929394959697985090919293949596975090919293949596509091929394955090919293945090919293509091925090915090508091505061072583826040518060400160405280600581526020017f6b697474790000000000000000000000000000000000000000000000000000008152506115b3565b505050565b6004818154811061073a57600080fd5b906000526020600020906003020160009150905080600001805461075d906127e2565b80601f0160208091040260200160405190810160405280929190818152602001828054610789906127e2565b80156107d65780601f106107ab576101008083540402835291602001916107d6565b820191906000526020600020905b8154815290600101906020018083116107b957829003601f168201915b5050505050908060010154908060020160009054906101000a900463ffffffff16908060020160049054906101000a900463ffffffff16908060020160089054906101000a900461ffff169080600201600a9054906101000a900461ffff16905086565b3373ffffffffffffffffffffffffffffffffffffffff166005600083815260200190815260200160002060009054906101000a900473ffffffffffffffffffffffffffffffffffffffff1673ffffffffffffffffffffffffffffffffffffffff16148061090557503373ffffffffffffffffffffffffffffffffffffffff16600b600083815260200190815260200160002060009054906101000a900473ffffffffffffffffffffffffffffffffffffffff1673ffffffffffffffffffffffffffffffffffffffff16145b61090e57600080fd5b610919838383611776565b505050565b610926611954565b73ffffffffffffffffffffffffffffffffffffffff16610944610fb0565b73ffffffffffffffffffffffffffffffffffffffff161461099a576040517f08c379a000000000000000000000000000000000000000000000000000000000815260040161099190612545565b60405180910390fd5b60006109a4610fb0565b90508073ffffffffffffffffffffffffffffffffffffffff166108fc479081150290604051600060405180830381858888f193505050501580156109ec573d6000803e3d6000fd5b5050565b60606000600660008473ffffffffffffffffffffffffffffffffffffffff1673ffffffffffffffffffffffffffffffffffffffff1681526020019081526020016000205467ffffffffffffffff811115610a73577f4e487b7100000000000000000000000000000000000000000000000000000000600052604160045260246000fd5b604051908082528060200260200182016040528015610aa15781602001602082028036833780820191505090505b5090506000805b600480549050811015610b84578473ffffffffffffffffffffffffffffffffffffffff166005600083815260200190815260200160002060009054906101000a900473ffffffffffffffffffffffffffffffffffffffff1673ffffffffffffffffffffffffffffffffffffffff161415610b715780838381518110610b56577f4e487b7100000000000000000000000000000000000000000000000000000000600052603260045260246000fd5b6020026020010181815250508180610b6d9061283f565b9250505b8080610b7c9061283f565b915050610aa8565b508192505050919050565b60056020528060005260406000206000915054906101000a900473ffffffffffffffffffffffffffffffffffffffff1681565b610bca611954565b73ffffffffffffffffffffffffffffffffffffffff16610be8610fb0565b73ffffffffffffffffffffffffffffffffffffffff1614610c3e576040517f08c379a0000000000000000000000000000000000000000000000000000000008152600401610c3590612545565b60405180910390fd5b80600760006101000a81548173ffffffffffffffffffffffffffffffffffffffff021916908373ffffffffffffffffffffffffffffffffffffffff16021790555050565b6014828160048281548110610cc0577f4e487b7100000000000000000000000000000000000000000000000000000000600052603260045260246000fd5b906000526020600020906003020160020160009054906101000a900463ffffffff1663ffffffff161015610cf357600080fd5b836005600082815260200190815260200160002060009054906101000a900473ffffffffffffffffffffffffffffffffffffffff1673ffffffffffffffffffffffffffffffffffffffff163373ffffffffffffffffffffffffffffffffffffffff1614610d5f57600080fd5b6005600086815260200190815260200160002060009054906101000a900473ffffffffffffffffffffffffffffffffffffffff1673ffffffffffffffffffffffffffffffffffffffff163373ffffffffffffffffffffffffffffffffffffffff1614610dca57600080fd5b8360048681548110610e05577f4e487b7100000000000000000000000000000000000000000000000000000000600052603260045260246000fd5b9060005260206000209060030201600101819055505050505050565b60006005600083815260200190815260200160002060009054906101000a900473ffffffffffffffffffffffffffffffffffffffff169050919050565b6000600660008373ffffffffffffffffffffffffffffffffffffffff1673ffffffffffffffffffffffffffffffffffffffff168152602001908152602001600020549050919050565b610eaf611954565b73ffffffffffffffffffffffffffffffffffffffff16610ecd610fb0565b73ffffffffffffffffffffffffffffffffffffffff1614610f23576040517f08c379a0000000000000000000000000000000000000000000000000000000008152600401610f1a90612545565b60405180910390fd5b610f2d600061195c565b565b6000600660003373ffffffffffffffffffffffffffffffffffffffff1673ffffffffffffffffffffffffffffffffffffffff1681526020019081526020016000205414610f7b57600080fd5b6000610f8682611a20565b9050606481610f9591906128e3565b81610fa09190612706565b9050610fac8282611a65565b5050565b60008060009054906101000a900473ffffffffffffffffffffffffffffffffffffffff16905090565b6002828160048281548110611017577f4e487b7100000000000000000000000000000000000000000000000000000000600052603260045260246000fd5b906000526020600020906003020160020160009054906101000a900463ffffffff1663ffffffff16101561104a57600080fd5b836005600082815260200190815260200160002060009054906101000a900473ffffffffffffffffffffffffffffffffffffffff1673ffffffffffffffffffffffffffffffffffffffff163373ffffffffffffffffffffffffffffffffffffffff16146110b657600080fd5b6005600086815260200190815260200160002060009054906101000a900473ffffffffffffffffffffffffffffffffffffffff1673ffffffffffffffffffffffffffffffffffffffff163373ffffffffffffffffffffffffffffffffffffffff161461112157600080fd5b836004868154811061115c577f4e487b7100000000000000000000000000000000000000000000000000000000600052603260045260246000fd5b90600052602060002090600302016000019080519060200190611180929190611df0565b505050505050565b611190611954565b73ffffffffffffffffffffffffffffffffffffffff166111ae610fb0565b73ffffffffffffffffffffffffffffffffffffffff1614611204576040517f08c379a00000000000000000000000000000000000000000000000000000000081526004016111fb90612545565b60405180910390fd5b8060088190555050565b816005600082815260200190815260200160002060009054906101000a900473ffffffffffffffffffffffffffffffffffffffff1673ffffffffffffffffffffffffffffffffffffffff163373ffffffffffffffffffffffffffffffffffffffff161461127a57600080fd5b6000600484815481106112b6577f4e487b7100000000000000000000000000000000000000000000000000000000600052603260045260246000fd5b90600052602060002090600302019050600060048481548110611302577f4e487b7100000000000000000000000000000000000000000000000000000000600052603260045260246000fd5b90600052602060002090600302019050600061131e6064611c9b565b9050600a54811161142f5782600201600881819054906101000a900461ffff168092919061134b90612814565b91906101000a81548161ffff021916908361ffff1602179055505082600201600081819054906101000a900463ffffffff168092919061138a90612888565b91906101000a81548163ffffffff021916908363ffffffff1602179055505081600201600a81819054906101000a900461ffff16809291906113cb90612814565b91906101000a81548161ffff021916908361ffff1602179055505061142a8683600101546040518060400160405280600681526020017f7a6f6d62696500000000000000000000000000000000000000000000000000008152506115b3565b6114aa565b82600201600a81819054906101000a900461ffff168092919061145190612814565b91906101000a81548161ffff021916908361ffff1602179055505081600201600881819054906101000a900461ffff168092919061148e90612814565b91906101000a81548161ffff021916908361ffff160217905550505b6114b383611cf7565b505050505050565b6114c3611954565b73ffffffffffffffffffffffffffffffffffffffff166114e1610fb0565b73ffffffffffffffffffffffffffffffffffffffff1614611537576040517f08c379a000000000000000000000000000000000000000000000000000000000815260040161152e90612545565b60405180910390fd5b600073ffffffffffffffffffffffffffffffffffffffff168173ffffffffffffffffffffffffffffffffffffffff1614156115a7576040517f08c379a000000000000000000000000000000000000000000000000000000000815260040161159e90612525565b60405180910390fd5b6115b08161195c565b50565b826005600082815260200190815260200160002060009054906101000a900473ffffffffffffffffffffffffffffffffffffffff1673ffffffffffffffffffffffffffffffffffffffff163373ffffffffffffffffffffffffffffffffffffffff161461161f57600080fd5b60006004858154811061165b577f4e487b7100000000000000000000000000000000000000000000000000000000600052603260045260246000fd5b9060005260206000209060030201905061167481611d2a565b61167d57600080fd5b6002548461168b91906128e3565b9350600060028583600101546116a1919061267f565b6116ab91906126d5565b90506040516020016116bc9061242e565b60405160208183030381529060405280519060200120846040516020016116e39190612417565b60405160208183030381529060405280519060200120141561172657606360648261170e91906128e3565b826117199190612706565b611723919061267f565b90505b6117656040518060400160405280600681526020017f4e6f4e616d65000000000000000000000000000000000000000000000000000081525082611a65565b61176e82611cf7565b505050505050565b6117c96001600660008573ffffffffffffffffffffffffffffffffffffffff1673ffffffffffffffffffffffffffffffffffffffff16815260200190815260200160002054611d5190919063ffffffff16565b600660008473ffffffffffffffffffffffffffffffffffffffff1673ffffffffffffffffffffffffffffffffffffffff1681526020019081526020016000208190555061185f6001600660003373ffffffffffffffffffffffffffffffffffffffff1673ffffffffffffffffffffffffffffffffffffffff16815260200190815260200160002054611da390919063ffffffff16565b600660003373ffffffffffffffffffffffffffffffffffffffff1673ffffffffffffffffffffffffffffffffffffffff16815260200190815260200160002081905550816005600083815260200190815260200160002060006101000a81548173ffffffffffffffffffffffffffffffffffffffff021916908373ffffffffffffffffffffffffffffffffffffffff160217905550808273ffffffffffffffffffffffffffffffffffffffff168473ffffffffffffffffffffffffffffffffffffffff167fddf252ad1be2c89b69c2b068fc378daa952ba7f163c4a11628f55a4df523b3ef60405160405180910390a4505050565b600033905090565b60008060009054906101000a900473ffffffffffffffffffffffffffffffffffffffff169050816000806101000a81548173ffffffffffffffffffffffffffffffffffffffff021916908373ffffffffffffffffffffffffffffffffffffffff1602179055508173ffffffffffffffffffffffffffffffffffffffff168173ffffffffffffffffffffffffffffffffffffffff167f8be0079c531659141344cd1fd0a4f28419497f9722a3daafe3b4186f6b6457e060405160405180910390a35050565b60008082604051602001611a349190612417565b6040516020818303038152906040528051906020012060001c905060025481611a5d91906128e3565b915050919050565b60046040518060c00160405280848152602001838152602001600163ffffffff16815260200160035442611a99919061267f565b63ffffffff168152602001600061ffff168152602001600061ffff1681525090806001815401808255809150506001900390600052602060002090600302016000909190919091506000820151816000019080519060200190611afd929190611df0565b506020820151816001015560408201518160020160006101000a81548163ffffffff021916908363ffffffff16021790555060608201518160020160046101000a81548163ffffffff021916908363ffffffff16021790555060808201518160020160086101000a81548161ffff021916908361ffff16021790555060a082015181600201600a6101000a81548161ffff021916908361ffff160217905550505060006001600480549050611bb29190612706565b9050336005600083815260200190815260200160002060006101000a81548173ffffffffffffffffffffffffffffffffffffffff021916908373ffffffffffffffffffffffffffffffffffffffff160217905550600660003373ffffffffffffffffffffffffffffffffffffffff1673ffffffffffffffffffffffffffffffffffffffff1681526020019081526020016000206000815480929190611c569061283f565b91905055507f88f026aacbbecc90c18411df4b1185fd8d9be2470f1962f192bf84a27d0704b7818484604051611c8e93929190612580565b60405180910390a1505050565b600060096000815480929190611cb09061283f565b9190505550814233600954604051602001611ccd93929190612443565b6040516020818303038152906040528051906020012060001c611cf091906128e3565b9050919050565b60035442611d05919061267f565b8160020160046101000a81548163ffffffff021916908363ffffffff16021790555050565b6000428260020160049054906101000a900463ffffffff1663ffffffff1611159050919050565b6000808284611d60919061267f565b905083811015611d99577f4e487b7100000000000000000000000000000000000000000000000000000000600052600160045260246000fd5b8091505092915050565b600082821115611ddc577f4e487b7100000000000000000000000000000000000000000000000000000000600052600160045260246000fd5b8183611de89190612706565b905092915050565b828054611dfc906127e2565b90600052602060002090601f016020900481019282611e1e5760008555611e65565b82601f10611e3757805160ff1916838001178555611e65565b82800160010185558215611e65579182015b82811115611e64578251825591602001919060010190611e49565b5b509050611e729190611e76565b5090565b5b80821115611e8f576000816000905550600101611e77565b5090565b6000611ea6611ea1846125ef565b6125be565b905082815260208101848484011115611ebe57600080fd5b611ec98482856127a0565b509392505050565b600081359050611ee0816129ee565b92915050565b600081519050611ef581612a05565b92915050565b600082601f830112611f0c57600080fd5b8135611f1c848260208601611e93565b91505092915050565b600081359050611f3481612a1c565b92915050565b600081519050611f4981612a1c565b92915050565b600060208284031215611f6157600080fd5b6000611f6f84828501611ed1565b91505092915050565b600080600060608486031215611f8d57600080fd5b6000611f9b86828701611ed1565b9350506020611fac86828701611ed1565b9250506040611fbd86828701611f25565b9150509250925092565b60008060408385031215611fda57600080fd5b6000611fe885828601611ed1565b9250506020611ff985828601611f25565b9150509250929050565b6000806000806000806000806000806101408b8d03121561202357600080fd5b60006120318d828e01611ee6565b9a505060206120428d828e01611ee6565b99505060406120538d828e01611f3a565b98505060606120648d828e01611f3a565b97505060806120758d828e01611f3a565b96505060a06120868d828e01611f3a565b95505060c06120978d828e01611f3a565b94505060e06120a88d828e01611f3a565b9350506101006120ba8d828e01611f3a565b9250506101206120cc8d828e01611f3a565b9150509295989b9194979a5092959850565b6000602082840312156120f057600080fd5b600082013567ffffffffffffffff81111561210a57600080fd5b61211684828501611efb565b91505092915050565b60006020828403121561213157600080fd5b600061213f84828501611f25565b91505092915050565b6000806040838503121561215b57600080fd5b600061216985828601611f25565b925050602083013567ffffffffffffffff81111561218657600080fd5b61219285828601611efb565b9150509250929050565b600080604083850312156121af57600080fd5b60006121bd85828601611f25565b92505060206121ce85828601611f25565b9150509250929050565b60006121e483836123d3565b60208301905092915050565b6121f98161273a565b82525050565b61221061220b8261273a565b6128b5565b82525050565b60006122218261262f565b61222b8185612652565b93506122368361261f565b8060005b8381101561226757815161224e88826121d8565b975061225983612645565b92505060018101905061223a565b5085935050505092915050565b600061227f8261263a565b6122898185612663565b93506122998185602086016127af565b6122a2816129d0565b840191505092915050565b60006122b88261263a565b6122c28185612674565b93506122d28185602086016127af565b80840191505092915050565b60006122eb602683612663565b91507f4f776e61626c653a206e6577206f776e657220697320746865207a65726f206160008301527f64647265737300000000000000000000000000000000000000000000000000006020830152604082019050919050565b6000612351600583612674565b91507f6b697474790000000000000000000000000000000000000000000000000000006000830152600582019050919050565b6000612391602083612663565b91507f4f776e61626c653a2063616c6c6572206973206e6f7420746865206f776e65726000830152602082019050919050565b6123cd81612758565b82525050565b6123dc81612786565b82525050565b6123eb81612786565b82525050565b6124026123fd82612786565b6128d9565b82525050565b61241181612790565b82525050565b600061242382846122ad565b915081905092915050565b600061243982612344565b9150819050919050565b600061244f82866123f1565b60208201915061245f82856121ff565b60148201915061246f82846123f1565b602082019150819050949350505050565b600060208201905061249560008301846121f0565b92915050565b600060208201905081810360008301526124b58184612216565b905092915050565b600060c08201905081810360008301526124d78189612274565b90506124e660208301886123e2565b6124f36040830187612408565b6125006060830186612408565b61250d60808301856123c4565b61251a60a08301846123c4565b979650505050505050565b6000602082019050818103600083015261253e816122de565b9050919050565b6000602082019050818103600083015261255e81612384565b9050919050565b600060208201905061257a60008301846123e2565b92915050565b600060608201905061259560008301866123e2565b81810360208301526125a78185612274565b90506125b660408301846123e2565b949350505050565b6000604051905081810181811067ffffffffffffffff821117156125e5576125e46129a1565b5b8060405250919050565b600067ffffffffffffffff82111561260a576126096129a1565b5b601f19601f8301169050602081019050919050565b6000819050602082019050919050565b600081519050919050565b600081519050919050565b6000602082019050919050565b600082825260208201905092915050565b600082825260208201905092915050565b600081905092915050565b600061268a82612786565b915061269583612786565b9250827fffffffffffffffffffffffffffffffffffffffffffffffffffffffffffffffff038211156126ca576126c9612914565b5b828201905092915050565b60006126e082612786565b91506126eb83612786565b9250826126fb576126fa612943565b5b828204905092915050565b600061271182612786565b915061271c83612786565b92508282101561272f5761272e612914565b5b828203905092915050565b600061274582612766565b9050919050565b60008115159050919050565b600061ffff82169050919050565b600073ffffffffffffffffffffffffffffffffffffffff82169050919050565b6000819050919050565b600063ffffffff82169050919050565b82818337600083830152505050565b60005b838110156127cd5780820151818401526020810190506127b2565b838111156127dc576000848401525b50505050565b600060028204905060018216806127fa57607f821691505b6020821081141561280e5761280d612972565b5b50919050565b600061281f82612758565b915061ffff82141561283457612833612914565b5b600182019050919050565b600061284a82612786565b91507fffffffffffffffffffffffffffffffffffffffffffffffffffffffffffffffff82141561287d5761287c612914565b5b600182019050919050565b600061289382612790565b915063ffffffff8214156128aa576128a9612914565b5b600182019050919050565b60006128c0826128c7565b9050919050565b60006128d2826129e1565b9050919050565b6000819050919050565b60006128ee82612786565b91506128f983612786565b92508261290957612908612943565b5b828206905092915050565b7f4e487b7100000000000000000000000000000000000000000000000000000000600052601160045260246000fd5b7f4e487b7100000000000000000000000000000000000000000000000000000000600052601260045260246000fd5b7f4e487b7100000000000000000000000000000000000000000000000000000000600052602260045260246000fd5b7f4e487b7100000000000000000000000000000000000000000000000000000000600052604160045260246000fd5b6000601f19601f8301169050919050565b60008160601b9050919050565b6129f78161273a565b8114612a0257600080fd5b50565b612a0e8161274c565b8114612a1957600080fd5b50565b612a2581612786565b8114612a3057600080fd5b5056fea264697066735822122033160b85ce9043de2232feec0d5d24e0cdcba98ec23821e9afaebc288d6c8b1664736f6c63430008000033",
  "immutableReferences": {},
  "source": "pragma solidity >=0.7.0 <0.8.5;\r\n//SPDX-License-Identifier: UNLICENSED\r\n\r\nimport \"./erc721.sol\";\r\nimport \"./zombieattack.sol\";\r\nimport \"./safemath.sol\";\r\n\r\n\r\ncontract ZombieOwnership is ZombieBattle, ERC721 {\r\n\r\n  using SafeMath for uint256;\r\n\r\n  mapping (uint => address) zombieApprovals;\r\n\r\n  function balanceOf(address _owner) external override view returns (uint256) {\r\n    return ownerZombieCount[_owner];\r\n  }\r\n\r\n  function ownerOf(uint256 _tokenId) external override view returns (address) {\r\n    return zombieToOwner[_tokenId];\r\n  }\r\n\r\n  function _transfer(address _from, address _to, uint256 _tokenId) private {\r\n    ownerZombieCount[_to] = ownerZombieCount[_to].add(1);\r\n    ownerZombieCount[msg.sender] = ownerZombieCount[msg.sender].sub(1);\r\n    zombieToOwner[_tokenId] = _to;\r\n    emit Transfer(_from, _to, _tokenId);\r\n  }\r\n\r\n  function transferFrom(address _from, address _to, uint256 _tokenId) external override payable {\r\n    require (zombieToOwner[_tokenId] == msg.sender || zombieApprovals[_tokenId] == msg.sender);\r\n    _transfer(_from, _to, _tokenId);\r\n  }\r\n\r\n  function approve(address _approved, uint256 _tokenId) external override payable onlyOwnerOf(_tokenId) {\r\n    zombieApprovals[_tokenId] = _approved;\r\n    emit Approval(msg.sender, _approved, _tokenId);\r\n  }\r\n\r\n}\r\n",
  "sourcePath": "C:\\Users\\antoi\\OneDrive\\Bureau\\CryptoZombie_Truffle\\contracts\\zombieownership.sol",
  "compiler": {
    "name": "solc",
    "version": "0.8.0+commit.c7dfd78e.Emscripten.clang"
  },
  "schemaVersion": "3.4.3",
  "updatedAt": "2021-11-04T09:47:02.432Z",
  "devdoc": {
    "kind": "dev",
    "methods": {
      "owner()": {
        "details": "Returns the address of the current owner."
      },
      "renounceOwnership()": {
        "details": "Leaves the contract without owner. It will not be possible to call `onlyOwner` functions anymore. Can only be called by the current owner. NOTE: Renouncing ownership will leave the contract without an owner, thereby removing any functionality that is only available to the owner."
      },
      "transferOwnership(address)": {
        "details": "Transfers ownership of the contract to a new account (`newOwner`). Can only be called by the current owner."
      }
    },
    "version": 1
  },
  "userdoc": {
    "kind": "user",
    "methods": {},
    "version": 1
  }
}