{
  "contractName": "ZombieFactory",
  "abi": [
    {
      "anonymous": false,
      "inputs": [
        {
          "indexed": false,
          "internalType": "uint256",
          "name": "zombieId",
          "type": "uint256"
        },
        {
          "indexed": false,
          "internalType": "string",
          "name": "name",
          "type": "string"
        },
        {
          "indexed": false,
          "internalType": "uint256",
          "name": "dna",
          "type": "uint256"
        }
      ],
      "name": "NewZombie",
      "type": "event"
    },
    {
      "anonymous": false,
      "inputs": [
        {
          "indexed": true,
          "internalType": "address",
          "name": "previousOwner",
          "type": "address"
        },
        {
          "indexed": true,
          "internalType": "address",
          "name": "newOwner",
          "type": "address"
        }
      ],
      "name": "OwnershipTransferred",
      "type": "event"
    },
    {
      "inputs": [],
      "name": "owner",
      "outputs": [
        {
          "internalType": "address",
          "name": "",
          "type": "address"
        }
      ],
      "stateMutability": "view",
      "type": "function"
    },
    {
      "inputs": [],
      "name": "renounceOwnership",
      "outputs": [],
      "stateMutability": "nonpayable",
      "type": "function"
    },
    {
      "inputs": [
        {
          "internalType": "address",
          "name": "newOwner",
          "type": "address"
        }
      ],
      "name": "transferOwnership",
      "outputs": [],
      "stateMutability": "nonpayable",
      "type": "function"
    },
    {
      "inputs": [
        {
          "internalType": "uint256",
          "name": "",
          "type": "uint256"
        }
      ],
      "name": "zombieToOwner",
      "outputs": [
        {
          "internalType": "address",
          "name": "",
          "type": "address"
        }
      ],
      "stateMutability": "view",
      "type": "function"
    },
    {
      "inputs": [
        {
          "internalType": "uint256",
          "name": "",
          "type": "uint256"
        }
      ],
      "name": "zombies",
      "outputs": [
        {
          "internalType": "string",
          "name": "name",
          "type": "string"
        },
        {
          "internalType": "uint256",
          "name": "dna",
          "type": "uint256"
        },
        {
          "internalType": "uint32",
          "name": "level",
          "type": "uint32"
        },
        {
          "internalType": "uint32",
          "name": "readyTime",
          "type": "uint32"
        },
        {
          "internalType": "uint16",
          "name": "winCount",
          "type": "uint16"
        },
        {
          "internalType": "uint16",
          "name": "lossCount",
          "type": "uint16"
        }
      ],
      "stateMutability": "view",
      "type": "function"
    },
    {
      "inputs": [
        {
          "internalType": "string",
          "name": "_name",
          "type": "string"
        }
      ],
      "name": "createRandomZombie",
      "outputs": [],
      "stateMutability": "nonpayable",
      "type": "function"
    }
  ],
  "bytecode": "0x60806040526010600155600154600a6200001a91906200017f565b600255620151806003553480156200003157600080fd5b5062000052620000466200005860201b60201c565b6200006060201b60201c565b62000302565b600033905090565b60008060009054906101000a900473ffffffffffffffffffffffffffffffffffffffff169050816000806101000a81548173ffffffffffffffffffffffffffffffffffffffff021916908373ffffffffffffffffffffffffffffffffffffffff1602179055508173ffffffffffffffffffffffffffffffffffffffff168173ffffffffffffffffffffffffffffffffffffffff167f8be0079c531659141344cd1fd0a4f28419497f9722a3daafe3b4186f6b6457e060405160405180910390a35050565b6000808291508390505b600185111562000176578086048111156200014e576200014d620002c6565b5b60018516156200015e5780820291505b80810290506200016e85620002f5565b94506200012e565b94509492505050565b60006200018c82620002bc565b91506200019983620002bc565b9250620001c87fffffffffffffffffffffffffffffffffffffffffffffffffffffffffffffffff8484620001d0565b905092915050565b600082620001e25760019050620002b5565b81620001f25760009050620002b5565b81600181146200020b576002811462000216576200024c565b6001915050620002b5565b60ff8411156200022b576200022a620002c6565b5b8360020a915084821115620002455762000244620002c6565b5b50620002b5565b5060208310610133831016604e8410600b8410161715620002865782820a90508381111562000280576200027f620002c6565b5b620002b5565b62000295848484600162000124565b92509050818404811115620002af57620002ae620002c6565b5b81810290505b9392505050565b6000819050919050565b7f4e487b7100000000000000000000000000000000000000000000000000000000600052601160045260246000fd5b60008160011c9050919050565b610f9780620003126000396000f3fe608060405234801561001057600080fd5b50600436106100625760003560e01c80632052465e14610067578063528b7b8f1461009c578063715018a6146100cc5780637bff0a01146100d65780638da5cb5b146100f2578063f2fde38b14610110575b600080fd5b610081600480360381019061007c919061097f565b61012c565b60405161009396959493929190610b26565b60405180910390f35b6100b660048036038101906100b1919061097f565b61023c565b6040516100c39190610b0b565b60405180910390f35b6100d461026f565b005b6100f060048036038101906100eb919061093e565b6102f7565b005b6100fa610378565b6040516101079190610b0b565b60405180910390f35b61012a60048036038101906101259190610915565b6103a1565b005b6004818154811061013c57600080fd5b906000526020600020906003020160009150905080600001805461015f90610dba565b80601f016020809104026020016040519081016040528092919081815260200182805461018b90610dba565b80156101d85780601f106101ad576101008083540402835291602001916101d8565b820191906000526020600020905b8154815290600101906020018083116101bb57829003601f168201915b5050505050908060010154908060020160009054906101000a900463ffffffff16908060020160049054906101000a900463ffffffff16908060020160089054906101000a900461ffff169080600201600a9054906101000a900461ffff16905086565b60056020528060005260406000206000915054906101000a900473ffffffffffffffffffffffffffffffffffffffff1681565b610277610499565b73ffffffffffffffffffffffffffffffffffffffff16610295610378565b73ffffffffffffffffffffffffffffffffffffffff16146102eb576040517f08c379a00000000000000000000000000000000000000000000000000000000081526004016102e290610bae565b60405180910390fd5b6102f560006104a1565b565b6000600660003373ffffffffffffffffffffffffffffffffffffffff1673ffffffffffffffffffffffffffffffffffffffff168152602001908152602001600020541461034357600080fd5b600061034e82610565565b905060648161035d9190610e35565b816103689190610cea565b905061037482826105aa565b5050565b60008060009054906101000a900473ffffffffffffffffffffffffffffffffffffffff16905090565b6103a9610499565b73ffffffffffffffffffffffffffffffffffffffff166103c7610378565b73ffffffffffffffffffffffffffffffffffffffff161461041d576040517f08c379a000000000000000000000000000000000000000000000000000000000815260040161041490610bae565b60405180910390fd5b600073ffffffffffffffffffffffffffffffffffffffff168173ffffffffffffffffffffffffffffffffffffffff16141561048d576040517f08c379a000000000000000000000000000000000000000000000000000000000815260040161048490610b8e565b60405180910390fd5b610496816104a1565b50565b600033905090565b60008060009054906101000a900473ffffffffffffffffffffffffffffffffffffffff169050816000806101000a81548173ffffffffffffffffffffffffffffffffffffffff021916908373ffffffffffffffffffffffffffffffffffffffff1602179055508173ffffffffffffffffffffffffffffffffffffffff168173ffffffffffffffffffffffffffffffffffffffff167f8be0079c531659141344cd1fd0a4f28419497f9722a3daafe3b4186f6b6457e060405160405180910390a35050565b600080826040516020016105799190610af4565b6040516020818303038152906040528051906020012060001c9050600254816105a29190610e35565b915050919050565b60046040518060c00160405280848152602001838152602001600163ffffffff168152602001600354426105de9190610c94565b63ffffffff168152602001600061ffff168152602001600061ffff16815250908060018154018082558091505060019003906000526020600020906003020160009091909190915060008201518160000190805190602001906106429291906107e0565b506020820151816001015560408201518160020160006101000a81548163ffffffff021916908363ffffffff16021790555060608201518160020160046101000a81548163ffffffff021916908363ffffffff16021790555060808201518160020160086101000a81548161ffff021916908361ffff16021790555060a082015181600201600a6101000a81548161ffff021916908361ffff1602179055505050600060016004805490506106f79190610cea565b9050336005600083815260200190815260200160002060006101000a81548173ffffffffffffffffffffffffffffffffffffffff021916908373ffffffffffffffffffffffffffffffffffffffff160217905550600660003373ffffffffffffffffffffffffffffffffffffffff1673ffffffffffffffffffffffffffffffffffffffff168152602001908152602001600020600081548092919061079b90610dec565b91905055507f88f026aacbbecc90c18411df4b1185fd8d9be2470f1962f192bf84a27d0704b78184846040516107d393929190610bce565b60405180910390a1505050565b8280546107ec90610dba565b90600052602060002090601f01602090048101928261080e5760008555610855565b82601f1061082757805160ff1916838001178555610855565b82800160010185558215610855579182015b82811115610854578251825591602001919060010190610839565b5b5090506108629190610866565b5090565b5b8082111561087f576000816000905550600101610867565b5090565b600061089661089184610c3d565b610c0c565b9050828152602081018484840111156108ae57600080fd5b6108b9848285610d78565b509392505050565b6000813590506108d081610f33565b92915050565b600082601f8301126108e757600080fd5b81356108f7848260208601610883565b91505092915050565b60008135905061090f81610f4a565b92915050565b60006020828403121561092757600080fd5b6000610935848285016108c1565b91505092915050565b60006020828403121561095057600080fd5b600082013567ffffffffffffffff81111561096a57600080fd5b610976848285016108d6565b91505092915050565b60006020828403121561099157600080fd5b600061099f84828501610900565b91505092915050565b6109b181610d1e565b82525050565b60006109c282610c6d565b6109cc8185610c78565b93506109dc818560208601610d87565b6109e581610f22565b840191505092915050565b60006109fb82610c6d565b610a058185610c89565b9350610a15818560208601610d87565b80840191505092915050565b6000610a2e602683610c78565b91507f4f776e61626c653a206e6577206f776e657220697320746865207a65726f206160008301527f64647265737300000000000000000000000000000000000000000000000000006020830152604082019050919050565b6000610a94602083610c78565b91507f4f776e61626c653a2063616c6c6572206973206e6f7420746865206f776e65726000830152602082019050919050565b610ad081610d30565b82525050565b610adf81610d5e565b82525050565b610aee81610d68565b82525050565b6000610b0082846109f0565b915081905092915050565b6000602082019050610b2060008301846109a8565b92915050565b600060c0820190508181036000830152610b4081896109b7565b9050610b4f6020830188610ad6565b610b5c6040830187610ae5565b610b696060830186610ae5565b610b766080830185610ac7565b610b8360a0830184610ac7565b979650505050505050565b60006020820190508181036000830152610ba781610a21565b9050919050565b60006020820190508181036000830152610bc781610a87565b9050919050565b6000606082019050610be36000830186610ad6565b8181036020830152610bf581856109b7565b9050610c046040830184610ad6565b949350505050565b6000604051905081810181811067ffffffffffffffff82111715610c3357610c32610ef3565b5b8060405250919050565b600067ffffffffffffffff821115610c5857610c57610ef3565b5b601f19601f8301169050602081019050919050565b600081519050919050565b600082825260208201905092915050565b600081905092915050565b6000610c9f82610d5e565b9150610caa83610d5e565b9250827fffffffffffffffffffffffffffffffffffffffffffffffffffffffffffffffff03821115610cdf57610cde610e66565b5b828201905092915050565b6000610cf582610d5e565b9150610d0083610d5e565b925082821015610d1357610d12610e66565b5b828203905092915050565b6000610d2982610d3e565b9050919050565b600061ffff82169050919050565b600073ffffffffffffffffffffffffffffffffffffffff82169050919050565b6000819050919050565b600063ffffffff82169050919050565b82818337600083830152505050565b60005b83811015610da5578082015181840152602081019050610d8a565b83811115610db4576000848401525b50505050565b60006002820490506001821680610dd257607f821691505b60208210811415610de657610de5610ec4565b5b50919050565b6000610df782610d5e565b91507fffffffffffffffffffffffffffffffffffffffffffffffffffffffffffffffff821415610e2a57610e29610e66565b5b600182019050919050565b6000610e4082610d5e565b9150610e4b83610d5e565b925082610e5b57610e5a610e95565b5b828206905092915050565b7f4e487b7100000000000000000000000000000000000000000000000000000000600052601160045260246000fd5b7f4e487b7100000000000000000000000000000000000000000000000000000000600052601260045260246000fd5b7f4e487b7100000000000000000000000000000000000000000000000000000000600052602260045260246000fd5b7f4e487b7100000000000000000000000000000000000000000000000000000000600052604160045260246000fd5b6000601f19601f8301169050919050565b610f3c81610d1e565b8114610f4757600080fd5b50565b610f5381610d5e565b8114610f5e57600080fd5b5056fea2646970667358221220fba0dcc3c89bdfbc6d62e46af85b47e867677a21825add2b6f9bc75c11e4168a64736f6c63430008000033",
  "immutableReferences": {},
  "source": "pragma solidity >=0.7.0 <0.8.5;\r\n//SPDX-License-Identifier: UNLICENSEDs\r\n\r\nimport \"./ownable.sol\";\r\n\r\ncontract ZombieFactory is Ownable {\r\n\r\n    event NewZombie(uint zombieId, string name, uint dna);\r\n\r\n    uint dnaDigits = 16;\r\n    uint dnaModulus = 10 ** dnaDigits;\r\n    uint coolDownTime = 1 days;\r\n\r\n    //Structure zombies\r\n    struct Zombie {\r\n        string name;\r\n        uint dna;\r\n        uint32 level;\r\n        uint32 readyTime;\r\n        uint16 winCount;\r\n        uint16 lossCount;\r\n    }\r\n\r\n    //Array zombies\r\n    Zombie[] public zombies;\r\n\r\n    //Mapping -> Stocker et rechercher un zombie avec son Id;\r\n    mapping (uint => address) public zombieToOwner;\r\n    //Mapping -> Stokcer et rechercher nombre de zombie avec son address\r\n    mapping (address => uint) ownerZombieCount;\r\n\r\n\r\n    /*\r\n    Goal : cration de zombie + ajout dans 'zombies' Array\r\n    In 4 Steps:\r\n        -Step 0 : Initialisation Id du zombie\r\n        -Step 1 : Ajout du zombie = id  msg.sender\r\n        -Step 2 : Count nombre zombie du owner (msg.sender)\r\n        -Step 3 : Appel event NewZombie\r\n    Result : Nouveau zombie\r\n    Author : Antoine Mousse\r\n    */\r\n    function _createZombie(string memory _name, uint _dna) internal {\r\n        zombies.push(Zombie(_name, _dna, 1, uint32(block.timestamp + coolDownTime), 0, 0));\r\n        uint id = zombies.length - 1;\r\n        zombieToOwner[id] = msg.sender;\r\n        ownerZombieCount[msg.sender]++;\r\n        emit NewZombie(id, _name, _dna);\r\n    }\r\n\r\n\r\n     /*\r\n    Goal : Gneration DNA alatoire\r\n    In 1 Steps:\r\n        -Step 0 : Initialisation rand = hash(keccak256) du parametre _str\r\n        -Step 1 : Retourne le resultat de rand % (10^16)\r\n    Result : uint ADN zombie (longeur 16)\r\n    Author : Antoine Mousse\r\n    */\r\n    function _generateRandomDna(string memory _str) private view returns (uint) {\r\n        uint rand = uint(keccak256(abi.encodePacked(_str)));\r\n        return rand % dnaModulus;\r\n    }\r\n\r\n\r\n     /*\r\n    Goal : Gneration alatoire de zombie avec un nom pass en parametre\r\n    In 4 Steps:\r\n        -Step 0 : Verification que le propritaire ne possde pas de Zombie\r\n        -Step 1 : Dclaration randDna(uint) = resultat de _generateRandomDna() du nom pass en parametre\r\n        -Step 2 : Ajout '00'  la fin du Dna\r\n        -Step 3 : Appel de la fonction _createZombie avec le nom pass en paramtre et le randDna calcul juste avant\r\n    Result : Zombie crer a partir du nom pass en paramtre + son Dna se termine par 00\r\n    Author : Antoine Mousse\r\n    */\r\n    function createRandomZombie(string memory _name) public {\r\n        require(ownerZombieCount[msg.sender] == 0);\r\n        uint randDna = _generateRandomDna(_name);\r\n        randDna = randDna - randDna % 100;\r\n        _createZombie(_name, randDna);\r\n    }\r\n\r\n}",
  "sourcePath": "C:\\Users\\antoi\\OneDrive\\Bureau\\CryptoZombie_Truffle\\contracts\\zombiefactory.sol",
  "compiler": {
    "name": "solc",
    "version": "0.8.0+commit.c7dfd78e.Emscripten.clang"
  },
  "schemaVersion": "3.4.3",
  "updatedAt": "2021-11-04T09:47:02.385Z",
  "devdoc": {
    "kind": "dev",
    "methods": {
      "owner()": {
        "details": "Returns the address of the current owner."
      },
      "renounceOwnership()": {
        "details": "Leaves the contract without owner. It will not be possible to call `onlyOwner` functions anymore. Can only be called by the current owner. NOTE: Renouncing ownership will leave the contract without an owner, thereby removing any functionality that is only available to the owner."
      },
      "transferOwnership(address)": {
        "details": "Transfers ownership of the contract to a new account (`newOwner`). Can only be called by the current owner."
      }
    },
    "version": 1
  },
  "userdoc": {
    "kind": "user",
    "methods": {},
    "version": 1
  }
}