{
  "contractName": "ZombieBattle",
  "abi": [
    {
      "anonymous": false,
      "inputs": [
        {
          "indexed": false,
          "internalType": "uint256",
          "name": "zombieId",
          "type": "uint256"
        },
        {
          "indexed": false,
          "internalType": "string",
          "name": "name",
          "type": "string"
        },
        {
          "indexed": false,
          "internalType": "uint256",
          "name": "dna",
          "type": "uint256"
        }
      ],
      "name": "NewZombie",
      "type": "event"
    },
    {
      "anonymous": false,
      "inputs": [
        {
          "indexed": true,
          "internalType": "address",
          "name": "previousOwner",
          "type": "address"
        },
        {
          "indexed": true,
          "internalType": "address",
          "name": "newOwner",
          "type": "address"
        }
      ],
      "name": "OwnershipTransferred",
      "type": "event"
    },
    {
      "inputs": [
        {
          "internalType": "uint256",
          "name": "_zombieId",
          "type": "uint256"
        },
        {
          "internalType": "uint256",
          "name": "_newDna",
          "type": "uint256"
        }
      ],
      "name": "changeDna",
      "outputs": [],
      "stateMutability": "nonpayable",
      "type": "function"
    },
    {
      "inputs": [
        {
          "internalType": "uint256",
          "name": "_zombieId",
          "type": "uint256"
        },
        {
          "internalType": "string",
          "name": "_newName",
          "type": "string"
        }
      ],
      "name": "changeName",
      "outputs": [],
      "stateMutability": "nonpayable",
      "type": "function"
    },
    {
      "inputs": [
        {
          "internalType": "string",
          "name": "_name",
          "type": "string"
        }
      ],
      "name": "createRandomZombie",
      "outputs": [],
      "stateMutability": "nonpayable",
      "type": "function"
    },
    {
      "inputs": [
        {
          "internalType": "uint256",
          "name": "_zombieId",
          "type": "uint256"
        },
        {
          "internalType": "uint256",
          "name": "_kittyId",
          "type": "uint256"
        }
      ],
      "name": "feedOnKitty",
      "outputs": [],
      "stateMutability": "nonpayable",
      "type": "function"
    },
    {
      "inputs": [
        {
          "internalType": "address",
          "name": "_owner",
          "type": "address"
        }
      ],
      "name": "getZombiesByOwner",
      "outputs": [
        {
          "internalType": "uint256[]",
          "name": "",
          "type": "uint256[]"
        }
      ],
      "stateMutability": "view",
      "type": "function"
    },
    {
      "inputs": [
        {
          "internalType": "uint256",
          "name": "_zombieId",
          "type": "uint256"
        }
      ],
      "name": "levelUp",
      "outputs": [],
      "stateMutability": "payable",
      "type": "function"
    },
    {
      "inputs": [],
      "name": "owner",
      "outputs": [
        {
          "internalType": "address",
          "name": "",
          "type": "address"
        }
      ],
      "stateMutability": "view",
      "type": "function"
    },
    {
      "inputs": [],
      "name": "renounceOwnership",
      "outputs": [],
      "stateMutability": "nonpayable",
      "type": "function"
    },
    {
      "inputs": [
        {
          "internalType": "address",
          "name": "_address",
          "type": "address"
        }
      ],
      "name": "setKittyContractAddress",
      "outputs": [],
      "stateMutability": "nonpayable",
      "type": "function"
    },
    {
      "inputs": [
        {
          "internalType": "uint256",
          "name": "_fee",
          "type": "uint256"
        }
      ],
      "name": "setLevelUpFee",
      "outputs": [],
      "stateMutability": "nonpayable",
      "type": "function"
    },
    {
      "inputs": [
        {
          "internalType": "address",
          "name": "newOwner",
          "type": "address"
        }
      ],
      "name": "transferOwnership",
      "outputs": [],
      "stateMutability": "nonpayable",
      "type": "function"
    },
    {
      "inputs": [],
      "name": "withdraw",
      "outputs": [],
      "stateMutability": "nonpayable",
      "type": "function"
    },
    {
      "inputs": [
        {
          "internalType": "uint256",
          "name": "",
          "type": "uint256"
        }
      ],
      "name": "zombieToOwner",
      "outputs": [
        {
          "internalType": "address",
          "name": "",
          "type": "address"
        }
      ],
      "stateMutability": "view",
      "type": "function"
    },
    {
      "inputs": [
        {
          "internalType": "uint256",
          "name": "",
          "type": "uint256"
        }
      ],
      "name": "zombies",
      "outputs": [
        {
          "internalType": "string",
          "name": "name",
          "type": "string"
        },
        {
          "internalType": "uint256",
          "name": "dna",
          "type": "uint256"
        },
        {
          "internalType": "uint32",
          "name": "level",
          "type": "uint32"
        },
        {
          "internalType": "uint32",
          "name": "readyTime",
          "type": "uint32"
        },
        {
          "internalType": "uint16",
          "name": "winCount",
          "type": "uint16"
        },
        {
          "internalType": "uint16",
          "name": "lossCount",
          "type": "uint16"
        }
      ],
      "stateMutability": "view",
      "type": "function"
    },
    {
      "inputs": [
        {
          "internalType": "uint256",
          "name": "_zombieId",
          "type": "uint256"
        },
        {
          "internalType": "uint256",
          "name": "_targetId",
          "type": "uint256"
        }
      ],
      "name": "attack",
      "outputs": [],
      "stateMutability": "nonpayable",
      "type": "function"
    }
  ],
  "bytecode": "0x60806040526010600155600154600a6200001a919062000194565b6002556201518060035566038d7ea4c6800060085560006009556046600a553480156200004657600080fd5b50620000676200005b6200006d60201b60201c565b6200007560201b60201c565b62000317565b600033905090565b60008060009054906101000a900473ffffffffffffffffffffffffffffffffffffffff169050816000806101000a81548173ffffffffffffffffffffffffffffffffffffffff021916908373ffffffffffffffffffffffffffffffffffffffff1602179055508173ffffffffffffffffffffffffffffffffffffffff168173ffffffffffffffffffffffffffffffffffffffff167f8be0079c531659141344cd1fd0a4f28419497f9722a3daafe3b4186f6b6457e060405160405180910390a35050565b6000808291508390505b60018511156200018b57808604811115620001635762000162620002db565b5b6001851615620001735780820291505b808102905062000183856200030a565b945062000143565b94509492505050565b6000620001a182620002d1565b9150620001ae83620002d1565b9250620001dd7fffffffffffffffffffffffffffffffffffffffffffffffffffffffffffffffff8484620001e5565b905092915050565b600082620001f75760019050620002ca565b81620002075760009050620002ca565b81600181146200022057600281146200022b5762000261565b6001915050620002ca565b60ff84111562000240576200023f620002db565b5b8360020a9150848211156200025a5762000259620002db565b5b50620002ca565b5060208310610133831016604e8410600b84101617156200029b5782820a905083811115620002955762000294620002db565b5b620002ca565b620002aa848484600162000139565b92509050818404811115620002c457620002c3620002db565b5b81810290505b9392505050565b6000819050919050565b7f4e487b7100000000000000000000000000000000000000000000000000000000600052601160045260246000fd5b60008160011c9050919050565b6123fb80620003276000396000f3fe6080604052600436106100e85760003560e01c80635faf28801161008a578063c39cbef111610059578063c39cbef1146102c2578063ccf670f8146102eb578063e1fa763814610314578063f2fde38b1461033d576100e8565b80635faf28801461022e578063715018a6146102575780637bff0a011461026e5780638da5cb5b14610297576100e8565b80633ccfd60b116100c65780633ccfd60b146101745780634412e1041461018b578063528b7b8f146101c85780635f4623f114610205576100e8565b80630ce90ec2146100ed57806317a7f4cc146101095780632052465e14610132575b600080fd5b61010760048036038101906101029190611ab1565b610366565b005b34801561011557600080fd5b50610130600480360381019061012b9190611b2e565b610401565b005b34801561013e57600080fd5b5061015960048036038101906101549190611ab1565b61052e565b60405161016b96959493929190611e4f565b60405180910390f35b34801561018057600080fd5b5061018961063e565b005b34801561019757600080fd5b506101b260048036038101906101ad919061196c565b610710565b6040516101bf9190611e2d565b60405180910390f35b3480156101d457600080fd5b506101ef60048036038101906101ea9190611ab1565b6108af565b6040516101fc9190611e12565b60405180910390f35b34801561021157600080fd5b5061022c6004803603810190610227919061196c565b6108e2565b005b34801561023a57600080fd5b5061025560048036038101906102509190611b2e565b6109a2565b005b34801561026357600080fd5b5061026c610b41565b005b34801561027a57600080fd5b5061029560048036038101906102909190611a70565b610bc9565b005b3480156102a357600080fd5b506102ac610c4a565b6040516102b99190611e12565b60405180910390f35b3480156102ce57600080fd5b506102e960048036038101906102e49190611ada565b610c73565b005b3480156102f757600080fd5b50610312600480360381019061030d9190611ab1565b610e22565b005b34801561032057600080fd5b5061033b60048036038101906103369190611b2e565b610ea8565b005b34801561034957600080fd5b50610364600480360381019061035f919061196c565b611155565b005b600854341461037457600080fd5b600481815481106103ae577f4e487b7100000000000000000000000000000000000000000000000000000000600052603260045260246000fd5b9060005260206000209060030201600201600081819054906101000a900463ffffffff16809291906103df9061221a565b91906101000a81548163ffffffff021916908363ffffffff1602179055505050565b6000600760009054906101000a900473ffffffffffffffffffffffffffffffffffffffff1673ffffffffffffffffffffffffffffffffffffffff1663e98b7f4d836040518263ffffffff1660e01b815260040161045e9190611ef7565b6101406040518083038186803b15801561047757600080fd5b505afa15801561048b573d6000803e3d6000fd5b505050506040513d601f19601f820116820180604052508101906104af9190611995565b9091929394959697985090919293949596975090919293949596509091929394955090919293945090919293509091925090915090508091505061052983826040518060400160405280600581526020017f6b6974747900000000000000000000000000000000000000000000000000000081525061124d565b505050565b6004818154811061053e57600080fd5b906000526020600020906003020160009150905080600001805461056190612174565b80601f016020809104026020016040519081016040528092919081815260200182805461058d90612174565b80156105da5780601f106105af576101008083540402835291602001916105da565b820191906000526020600020905b8154815290600101906020018083116105bd57829003601f168201915b5050505050908060010154908060020160009054906101000a900463ffffffff16908060020160049054906101000a900463ffffffff16908060020160089054906101000a900461ffff169080600201600a9054906101000a900461ffff16905086565b610646611410565b73ffffffffffffffffffffffffffffffffffffffff16610664610c4a565b73ffffffffffffffffffffffffffffffffffffffff16146106ba576040517f08c379a00000000000000000000000000000000000000000000000000000000081526004016106b190611ed7565b60405180910390fd5b60006106c4610c4a565b90508073ffffffffffffffffffffffffffffffffffffffff166108fc479081150290604051600060405180830381858888f1935050505015801561070c573d6000803e3d6000fd5b5050565b60606000600660008473ffffffffffffffffffffffffffffffffffffffff1673ffffffffffffffffffffffffffffffffffffffff1681526020019081526020016000205467ffffffffffffffff811115610793577f4e487b7100000000000000000000000000000000000000000000000000000000600052604160045260246000fd5b6040519080825280602002602001820160405280156107c15781602001602082028036833780820191505090505b5090506000805b6004805490508110156108a4578473ffffffffffffffffffffffffffffffffffffffff166005600083815260200190815260200160002060009054906101000a900473ffffffffffffffffffffffffffffffffffffffff1673ffffffffffffffffffffffffffffffffffffffff1614156108915780838381518110610876577f4e487b7100000000000000000000000000000000000000000000000000000000600052603260045260246000fd5b602002602001018181525050818061088d906121d1565b9250505b808061089c906121d1565b9150506107c8565b508192505050919050565b60056020528060005260406000206000915054906101000a900473ffffffffffffffffffffffffffffffffffffffff1681565b6108ea611410565b73ffffffffffffffffffffffffffffffffffffffff16610908610c4a565b73ffffffffffffffffffffffffffffffffffffffff161461095e576040517f08c379a000000000000000000000000000000000000000000000000000000000815260040161095590611ed7565b60405180910390fd5b80600760006101000a81548173ffffffffffffffffffffffffffffffffffffffff021916908373ffffffffffffffffffffffffffffffffffffffff16021790555050565b60148281600482815481106109e0577f4e487b7100000000000000000000000000000000000000000000000000000000600052603260045260246000fd5b906000526020600020906003020160020160009054906101000a900463ffffffff1663ffffffff161015610a1357600080fd5b836005600082815260200190815260200160002060009054906101000a900473ffffffffffffffffffffffffffffffffffffffff1673ffffffffffffffffffffffffffffffffffffffff163373ffffffffffffffffffffffffffffffffffffffff1614610a7f57600080fd5b6005600086815260200190815260200160002060009054906101000a900473ffffffffffffffffffffffffffffffffffffffff1673ffffffffffffffffffffffffffffffffffffffff163373ffffffffffffffffffffffffffffffffffffffff1614610aea57600080fd5b8360048681548110610b25577f4e487b7100000000000000000000000000000000000000000000000000000000600052603260045260246000fd5b9060005260206000209060030201600101819055505050505050565b610b49611410565b73ffffffffffffffffffffffffffffffffffffffff16610b67610c4a565b73ffffffffffffffffffffffffffffffffffffffff1614610bbd576040517f08c379a0000000000000000000000000000000000000000000000000000000008152600401610bb490611ed7565b60405180910390fd5b610bc76000611418565b565b6000600660003373ffffffffffffffffffffffffffffffffffffffff1673ffffffffffffffffffffffffffffffffffffffff1681526020019081526020016000205414610c1557600080fd5b6000610c20826114dc565b9050606481610c2f9190612275565b81610c3a9190612098565b9050610c468282611521565b5050565b60008060009054906101000a900473ffffffffffffffffffffffffffffffffffffffff16905090565b6002828160048281548110610cb1577f4e487b7100000000000000000000000000000000000000000000000000000000600052603260045260246000fd5b906000526020600020906003020160020160009054906101000a900463ffffffff1663ffffffff161015610ce457600080fd5b836005600082815260200190815260200160002060009054906101000a900473ffffffffffffffffffffffffffffffffffffffff1673ffffffffffffffffffffffffffffffffffffffff163373ffffffffffffffffffffffffffffffffffffffff1614610d5057600080fd5b6005600086815260200190815260200160002060009054906101000a900473ffffffffffffffffffffffffffffffffffffffff1673ffffffffffffffffffffffffffffffffffffffff163373ffffffffffffffffffffffffffffffffffffffff1614610dbb57600080fd5b8360048681548110610df6577f4e487b7100000000000000000000000000000000000000000000000000000000600052603260045260246000fd5b90600052602060002090600302016000019080519060200190610e1a92919061180d565b505050505050565b610e2a611410565b73ffffffffffffffffffffffffffffffffffffffff16610e48610c4a565b73ffffffffffffffffffffffffffffffffffffffff1614610e9e576040517f08c379a0000000000000000000000000000000000000000000000000000000008152600401610e9590611ed7565b60405180910390fd5b8060088190555050565b816005600082815260200190815260200160002060009054906101000a900473ffffffffffffffffffffffffffffffffffffffff1673ffffffffffffffffffffffffffffffffffffffff163373ffffffffffffffffffffffffffffffffffffffff1614610f1457600080fd5b600060048481548110610f50577f4e487b7100000000000000000000000000000000000000000000000000000000600052603260045260246000fd5b90600052602060002090600302019050600060048481548110610f9c577f4e487b7100000000000000000000000000000000000000000000000000000000600052603260045260246000fd5b906000526020600020906003020190506000610fb86064611757565b9050600a5481116110c95782600201600881819054906101000a900461ffff1680929190610fe5906121a6565b91906101000a81548161ffff021916908361ffff1602179055505082600201600081819054906101000a900463ffffffff16809291906110249061221a565b91906101000a81548163ffffffff021916908363ffffffff1602179055505081600201600a81819054906101000a900461ffff1680929190611065906121a6565b91906101000a81548161ffff021916908361ffff160217905550506110c48683600101546040518060400160405280600681526020017f7a6f6d626965000000000000000000000000000000000000000000000000000081525061124d565b611144565b82600201600a81819054906101000a900461ffff16809291906110eb906121a6565b91906101000a81548161ffff021916908361ffff1602179055505081600201600881819054906101000a900461ffff1680929190611128906121a6565b91906101000a81548161ffff021916908361ffff160217905550505b61114d836117b3565b505050505050565b61115d611410565b73ffffffffffffffffffffffffffffffffffffffff1661117b610c4a565b73ffffffffffffffffffffffffffffffffffffffff16146111d1576040517f08c379a00000000000000000000000000000000000000000000000000000000081526004016111c890611ed7565b60405180910390fd5b600073ffffffffffffffffffffffffffffffffffffffff168173ffffffffffffffffffffffffffffffffffffffff161415611241576040517f08c379a000000000000000000000000000000000000000000000000000000000815260040161123890611eb7565b60405180910390fd5b61124a81611418565b50565b826005600082815260200190815260200160002060009054906101000a900473ffffffffffffffffffffffffffffffffffffffff1673ffffffffffffffffffffffffffffffffffffffff163373ffffffffffffffffffffffffffffffffffffffff16146112b957600080fd5b6000600485815481106112f5577f4e487b7100000000000000000000000000000000000000000000000000000000600052603260045260246000fd5b9060005260206000209060030201905061130e816117e6565b61131757600080fd5b600254846113259190612275565b93506000600285836001015461133b9190612011565b6113459190612067565b905060405160200161135690611dc0565b604051602081830303815290604052805190602001208460405160200161137d9190611da9565b6040516020818303038152906040528051906020012014156113c05760636064826113a89190612275565b826113b39190612098565b6113bd9190612011565b90505b6113ff6040518060400160405280600681526020017f4e6f4e616d65000000000000000000000000000000000000000000000000000081525082611521565b611408826117b3565b505050505050565b600033905090565b60008060009054906101000a900473ffffffffffffffffffffffffffffffffffffffff169050816000806101000a81548173ffffffffffffffffffffffffffffffffffffffff021916908373ffffffffffffffffffffffffffffffffffffffff1602179055508173ffffffffffffffffffffffffffffffffffffffff168173ffffffffffffffffffffffffffffffffffffffff167f8be0079c531659141344cd1fd0a4f28419497f9722a3daafe3b4186f6b6457e060405160405180910390a35050565b600080826040516020016114f09190611da9565b6040516020818303038152906040528051906020012060001c9050600254816115199190612275565b915050919050565b60046040518060c00160405280848152602001838152602001600163ffffffff168152602001600354426115559190612011565b63ffffffff168152602001600061ffff168152602001600061ffff16815250908060018154018082558091505060019003906000526020600020906003020160009091909190915060008201518160000190805190602001906115b992919061180d565b506020820151816001015560408201518160020160006101000a81548163ffffffff021916908363ffffffff16021790555060608201518160020160046101000a81548163ffffffff021916908363ffffffff16021790555060808201518160020160086101000a81548161ffff021916908361ffff16021790555060a082015181600201600a6101000a81548161ffff021916908361ffff16021790555050506000600160048054905061166e9190612098565b9050336005600083815260200190815260200160002060006101000a81548173ffffffffffffffffffffffffffffffffffffffff021916908373ffffffffffffffffffffffffffffffffffffffff160217905550600660003373ffffffffffffffffffffffffffffffffffffffff1673ffffffffffffffffffffffffffffffffffffffff1681526020019081526020016000206000815480929190611712906121d1565b91905055507f88f026aacbbecc90c18411df4b1185fd8d9be2470f1962f192bf84a27d0704b781848460405161174a93929190611f12565b60405180910390a1505050565b60006009600081548092919061176c906121d1565b919050555081423360095460405160200161178993929190611dd5565b6040516020818303038152906040528051906020012060001c6117ac9190612275565b9050919050565b600354426117c19190612011565b8160020160046101000a81548163ffffffff021916908363ffffffff16021790555050565b6000428260020160049054906101000a900463ffffffff1663ffffffff1611159050919050565b82805461181990612174565b90600052602060002090601f01602090048101928261183b5760008555611882565b82601f1061185457805160ff1916838001178555611882565b82800160010185558215611882579182015b82811115611881578251825591602001919060010190611866565b5b50905061188f9190611893565b5090565b5b808211156118ac576000816000905550600101611894565b5090565b60006118c36118be84611f81565b611f50565b9050828152602081018484840111156118db57600080fd5b6118e6848285612132565b509392505050565b6000813590506118fd81612380565b92915050565b60008151905061191281612397565b92915050565b600082601f83011261192957600080fd5b81356119398482602086016118b0565b91505092915050565b600081359050611951816123ae565b92915050565b600081519050611966816123ae565b92915050565b60006020828403121561197e57600080fd5b600061198c848285016118ee565b91505092915050565b6000806000806000806000806000806101408b8d0312156119b557600080fd5b60006119c38d828e01611903565b9a505060206119d48d828e01611903565b99505060406119e58d828e01611957565b98505060606119f68d828e01611957565b9750506080611a078d828e01611957565b96505060a0611a188d828e01611957565b95505060c0611a298d828e01611957565b94505060e0611a3a8d828e01611957565b935050610100611a4c8d828e01611957565b925050610120611a5e8d828e01611957565b9150509295989b9194979a5092959850565b600060208284031215611a8257600080fd5b600082013567ffffffffffffffff811115611a9c57600080fd5b611aa884828501611918565b91505092915050565b600060208284031215611ac357600080fd5b6000611ad184828501611942565b91505092915050565b60008060408385031215611aed57600080fd5b6000611afb85828601611942565b925050602083013567ffffffffffffffff811115611b1857600080fd5b611b2485828601611918565b9150509250929050565b60008060408385031215611b4157600080fd5b6000611b4f85828601611942565b9250506020611b6085828601611942565b9150509250929050565b6000611b768383611d65565b60208301905092915050565b611b8b816120cc565b82525050565b611ba2611b9d826120cc565b612247565b82525050565b6000611bb382611fc1565b611bbd8185611fe4565b9350611bc883611fb1565b8060005b83811015611bf9578151611be08882611b6a565b9750611beb83611fd7565b925050600181019050611bcc565b5085935050505092915050565b6000611c1182611fcc565b611c1b8185611ff5565b9350611c2b818560208601612141565b611c3481612362565b840191505092915050565b6000611c4a82611fcc565b611c548185612006565b9350611c64818560208601612141565b80840191505092915050565b6000611c7d602683611ff5565b91507f4f776e61626c653a206e6577206f776e657220697320746865207a65726f206160008301527f64647265737300000000000000000000000000000000000000000000000000006020830152604082019050919050565b6000611ce3600583612006565b91507f6b697474790000000000000000000000000000000000000000000000000000006000830152600582019050919050565b6000611d23602083611ff5565b91507f4f776e61626c653a2063616c6c6572206973206e6f7420746865206f776e65726000830152602082019050919050565b611d5f816120ea565b82525050565b611d6e81612118565b82525050565b611d7d81612118565b82525050565b611d94611d8f82612118565b61226b565b82525050565b611da381612122565b82525050565b6000611db58284611c3f565b915081905092915050565b6000611dcb82611cd6565b9150819050919050565b6000611de18286611d83565b602082019150611df18285611b91565b601482019150611e018284611d83565b602082019150819050949350505050565b6000602082019050611e276000830184611b82565b92915050565b60006020820190508181036000830152611e478184611ba8565b905092915050565b600060c0820190508181036000830152611e698189611c06565b9050611e786020830188611d74565b611e856040830187611d9a565b611e926060830186611d9a565b611e9f6080830185611d56565b611eac60a0830184611d56565b979650505050505050565b60006020820190508181036000830152611ed081611c70565b9050919050565b60006020820190508181036000830152611ef081611d16565b9050919050565b6000602082019050611f0c6000830184611d74565b92915050565b6000606082019050611f276000830186611d74565b8181036020830152611f398185611c06565b9050611f486040830184611d74565b949350505050565b6000604051905081810181811067ffffffffffffffff82111715611f7757611f76612333565b5b8060405250919050565b600067ffffffffffffffff821115611f9c57611f9b612333565b5b601f19601f8301169050602081019050919050565b6000819050602082019050919050565b600081519050919050565b600081519050919050565b6000602082019050919050565b600082825260208201905092915050565b600082825260208201905092915050565b600081905092915050565b600061201c82612118565b915061202783612118565b9250827fffffffffffffffffffffffffffffffffffffffffffffffffffffffffffffffff0382111561205c5761205b6122a6565b5b828201905092915050565b600061207282612118565b915061207d83612118565b92508261208d5761208c6122d5565b5b828204905092915050565b60006120a382612118565b91506120ae83612118565b9250828210156120c1576120c06122a6565b5b828203905092915050565b60006120d7826120f8565b9050919050565b60008115159050919050565b600061ffff82169050919050565b600073ffffffffffffffffffffffffffffffffffffffff82169050919050565b6000819050919050565b600063ffffffff82169050919050565b82818337600083830152505050565b60005b8381101561215f578082015181840152602081019050612144565b8381111561216e576000848401525b50505050565b6000600282049050600182168061218c57607f821691505b602082108114156121a05761219f612304565b5b50919050565b60006121b1826120ea565b915061ffff8214156121c6576121c56122a6565b5b600182019050919050565b60006121dc82612118565b91507fffffffffffffffffffffffffffffffffffffffffffffffffffffffffffffffff82141561220f5761220e6122a6565b5b600182019050919050565b600061222582612122565b915063ffffffff82141561223c5761223b6122a6565b5b600182019050919050565b600061225282612259565b9050919050565b600061226482612373565b9050919050565b6000819050919050565b600061228082612118565b915061228b83612118565b92508261229b5761229a6122d5565b5b828206905092915050565b7f4e487b7100000000000000000000000000000000000000000000000000000000600052601160045260246000fd5b7f4e487b7100000000000000000000000000000000000000000000000000000000600052601260045260246000fd5b7f4e487b7100000000000000000000000000000000000000000000000000000000600052602260045260246000fd5b7f4e487b7100000000000000000000000000000000000000000000000000000000600052604160045260246000fd5b6000601f19601f8301169050919050565b60008160601b9050919050565b612389816120cc565b811461239457600080fd5b50565b6123a0816120de565b81146123ab57600080fd5b50565b6123b781612118565b81146123c257600080fd5b5056fea2646970667358221220c78f0a2c217daf71b48bb7ae5cc7da0fe4eb9f16a0270ea5d4ca0440613f655b64736f6c63430008000033",
  "immutableReferences": {},
  "source": "pragma solidity >=0.7.0 <0.8.5;\r\n//SPDX-License-Identifier: UNLICENSED\r\n\r\nimport \"./zombiehelper.sol\";\r\n\r\ncontract ZombieBattle is ZombieHelper {\r\n    uint randNonce = 0;\r\n    uint attackVictoryProbability = 70;\r\n\r\n    function randMod(uint _modulus) internal returns(uint) {\r\n        randNonce++;\r\n    return uint(keccak256(abi.encodePacked(block.timestamp,msg.sender,randNonce))) % _modulus;\r\n    }\r\n\r\n    function attack(uint _zombieId, uint _targetId) external onlyOwnerOf(_zombieId) {\r\n        Zombie storage myZombie = zombies[_zombieId];\r\n        Zombie storage enemyZombie = zombies[_targetId];\r\n        uint rand = randMod(100);\r\n        if (rand <= attackVictoryProbability) {\r\n            myZombie.winCount++;\r\n            myZombie.level++;\r\n            enemyZombie.lossCount++;\r\n            feedAndMultiply(_zombieId, enemyZombie.dna, \"zombie\");\r\n        } else {\r\n            myZombie.lossCount++;\r\n            enemyZombie.winCount++;\r\n        }\r\n        _triggerCooldown(myZombie);\r\n    }\r\n}",
  "sourcePath": "C:\\Users\\antoi\\OneDrive\\Bureau\\CryptoZombie_Truffle\\contracts\\zombieattack.sol",
  "compiler": {
    "name": "solc",
    "version": "0.8.0+commit.c7dfd78e.Emscripten.clang"
  },
  "schemaVersion": "3.4.3",
  "updatedAt": "2021-11-04T09:47:02.371Z",
  "devdoc": {
    "kind": "dev",
    "methods": {
      "owner()": {
        "details": "Returns the address of the current owner."
      },
      "renounceOwnership()": {
        "details": "Leaves the contract without owner. It will not be possible to call `onlyOwner` functions anymore. Can only be called by the current owner. NOTE: Renouncing ownership will leave the contract without an owner, thereby removing any functionality that is only available to the owner."
      },
      "transferOwnership(address)": {
        "details": "Transfers ownership of the contract to a new account (`newOwner`). Can only be called by the current owner."
      }
    },
    "version": 1
  },
  "userdoc": {
    "kind": "user",
    "methods": {},
    "version": 1
  }
}