{
  "contractName": "ZombieFeeding",
  "abi": [
    {
      "anonymous": false,
      "inputs": [
        {
          "indexed": false,
          "internalType": "uint256",
          "name": "zombieId",
          "type": "uint256"
        },
        {
          "indexed": false,
          "internalType": "string",
          "name": "name",
          "type": "string"
        },
        {
          "indexed": false,
          "internalType": "uint256",
          "name": "dna",
          "type": "uint256"
        }
      ],
      "name": "NewZombie",
      "type": "event"
    },
    {
      "anonymous": false,
      "inputs": [
        {
          "indexed": true,
          "internalType": "address",
          "name": "previousOwner",
          "type": "address"
        },
        {
          "indexed": true,
          "internalType": "address",
          "name": "newOwner",
          "type": "address"
        }
      ],
      "name": "OwnershipTransferred",
      "type": "event"
    },
    {
      "inputs": [
        {
          "internalType": "string",
          "name": "_name",
          "type": "string"
        }
      ],
      "name": "createRandomZombie",
      "outputs": [],
      "stateMutability": "nonpayable",
      "type": "function"
    },
    {
      "inputs": [],
      "name": "owner",
      "outputs": [
        {
          "internalType": "address",
          "name": "",
          "type": "address"
        }
      ],
      "stateMutability": "view",
      "type": "function"
    },
    {
      "inputs": [],
      "name": "renounceOwnership",
      "outputs": [],
      "stateMutability": "nonpayable",
      "type": "function"
    },
    {
      "inputs": [
        {
          "internalType": "address",
          "name": "newOwner",
          "type": "address"
        }
      ],
      "name": "transferOwnership",
      "outputs": [],
      "stateMutability": "nonpayable",
      "type": "function"
    },
    {
      "inputs": [
        {
          "internalType": "uint256",
          "name": "",
          "type": "uint256"
        }
      ],
      "name": "zombieToOwner",
      "outputs": [
        {
          "internalType": "address",
          "name": "",
          "type": "address"
        }
      ],
      "stateMutability": "view",
      "type": "function"
    },
    {
      "inputs": [
        {
          "internalType": "uint256",
          "name": "",
          "type": "uint256"
        }
      ],
      "name": "zombies",
      "outputs": [
        {
          "internalType": "string",
          "name": "name",
          "type": "string"
        },
        {
          "internalType": "uint256",
          "name": "dna",
          "type": "uint256"
        },
        {
          "internalType": "uint32",
          "name": "level",
          "type": "uint32"
        },
        {
          "internalType": "uint32",
          "name": "readyTime",
          "type": "uint32"
        },
        {
          "internalType": "uint16",
          "name": "winCount",
          "type": "uint16"
        },
        {
          "internalType": "uint16",
          "name": "lossCount",
          "type": "uint16"
        }
      ],
      "stateMutability": "view",
      "type": "function"
    },
    {
      "inputs": [
        {
          "internalType": "address",
          "name": "_address",
          "type": "address"
        }
      ],
      "name": "setKittyContractAddress",
      "outputs": [],
      "stateMutability": "nonpayable",
      "type": "function"
    },
    {
      "inputs": [
        {
          "internalType": "uint256",
          "name": "_zombieId",
          "type": "uint256"
        },
        {
          "internalType": "uint256",
          "name": "_kittyId",
          "type": "uint256"
        }
      ],
      "name": "feedOnKitty",
      "outputs": [],
      "stateMutability": "nonpayable",
      "type": "function"
    }
  ],
  "bytecode": "0x60806040526010600155600154600a6200001a91906200017f565b600255620151806003553480156200003157600080fd5b5062000052620000466200005860201b60201c565b6200006060201b60201c565b62000302565b600033905090565b60008060009054906101000a900473ffffffffffffffffffffffffffffffffffffffff169050816000806101000a81548173ffffffffffffffffffffffffffffffffffffffff021916908373ffffffffffffffffffffffffffffffffffffffff1602179055508173ffffffffffffffffffffffffffffffffffffffff168173ffffffffffffffffffffffffffffffffffffffff167f8be0079c531659141344cd1fd0a4f28419497f9722a3daafe3b4186f6b6457e060405160405180910390a35050565b6000808291508390505b600185111562000176578086048111156200014e576200014d620002c6565b5b60018516156200015e5780820291505b80810290506200016e85620002f5565b94506200012e565b94509492505050565b60006200018c82620002bc565b91506200019983620002bc565b9250620001c87fffffffffffffffffffffffffffffffffffffffffffffffffffffffffffffffff8484620001d0565b905092915050565b600082620001e25760019050620002b5565b81620001f25760009050620002b5565b81600181146200020b576002811462000216576200024c565b6001915050620002b5565b60ff8411156200022b576200022a620002c6565b5b8360020a915084821115620002455762000244620002c6565b5b50620002b5565b5060208310610133831016604e8410600b8410161715620002865782820a90508381111562000280576200027f620002c6565b5b620002b5565b62000295848484600162000124565b92509050818404811115620002af57620002ae620002c6565b5b81810290505b9392505050565b6000819050919050565b7f4e487b7100000000000000000000000000000000000000000000000000000000600052601160045260246000fd5b60008160011c9050919050565b61160480620003126000396000f3fe608060405234801561001057600080fd5b50600436106100885760003560e01c8063715018a61161005b578063715018a61461012a5780637bff0a01146101345780638da5cb5b14610150578063f2fde38b1461016e57610088565b806317a7f4cc1461008d5780632052465e146100a9578063528b7b8f146100de5780635f4623f11461010e575b600080fd5b6100a760048036038101906100a29190610f15565b61018a565b005b6100c360048036038101906100be9190610eec565b6102b7565b6040516100d596959493929190611124565b60405180910390f35b6100f860048036038101906100f39190610eec565b6103c7565b6040516101059190611109565b60405180910390f35b61012860048036038101906101239190610da7565b6103fa565b005b6101326104ba565b005b61014e60048036038101906101499190610eab565b610542565b005b6101586105c3565b6040516101659190611109565b60405180910390f35b61018860048036038101906101839190610da7565b6105ec565b005b6000600760009054906101000a900473ffffffffffffffffffffffffffffffffffffffff1673ffffffffffffffffffffffffffffffffffffffff1663e98b7f4d836040518263ffffffff1660e01b81526004016101e791906111cc565b6101406040518083038186803b15801561020057600080fd5b505afa158015610214573d6000803e3d6000fd5b505050506040513d601f19601f820116820180604052508101906102389190610dd0565b909192939495969798509091929394959697509091929394959650909192939495509091929394509091929350909192509091509050809150506102b283826040518060400160405280600581526020017f6b697474790000000000000000000000000000000000000000000000000000008152506106e4565b505050565b600481815481106102c757600080fd5b90600052602060002090600302016000915090508060000180546102ea90611410565b80601f016020809104026020016040519081016040528092919081815260200182805461031690611410565b80156103635780601f1061033857610100808354040283529160200191610363565b820191906000526020600020905b81548152906001019060200180831161034657829003601f168201915b5050505050908060010154908060020160009054906101000a900463ffffffff16908060020160049054906101000a900463ffffffff16908060020160089054906101000a900461ffff169080600201600a9054906101000a900461ffff16905086565b60056020528060005260406000206000915054906101000a900473ffffffffffffffffffffffffffffffffffffffff1681565b6104026108a7565b73ffffffffffffffffffffffffffffffffffffffff166104206105c3565b73ffffffffffffffffffffffffffffffffffffffff1614610476576040517f08c379a000000000000000000000000000000000000000000000000000000000815260040161046d906111ac565b60405180910390fd5b80600760006101000a81548173ffffffffffffffffffffffffffffffffffffffff021916908373ffffffffffffffffffffffffffffffffffffffff16021790555050565b6104c26108a7565b73ffffffffffffffffffffffffffffffffffffffff166104e06105c3565b73ffffffffffffffffffffffffffffffffffffffff1614610536576040517f08c379a000000000000000000000000000000000000000000000000000000000815260040161052d906111ac565b60405180910390fd5b61054060006108af565b565b6000600660003373ffffffffffffffffffffffffffffffffffffffff1673ffffffffffffffffffffffffffffffffffffffff168152602001908152602001600020541461058e57600080fd5b600061059982610973565b90506064816105a8919061148b565b816105b39190611334565b90506105bf82826109b8565b5050565b60008060009054906101000a900473ffffffffffffffffffffffffffffffffffffffff16905090565b6105f46108a7565b73ffffffffffffffffffffffffffffffffffffffff166106126105c3565b73ffffffffffffffffffffffffffffffffffffffff1614610668576040517f08c379a000000000000000000000000000000000000000000000000000000000815260040161065f906111ac565b60405180910390fd5b600073ffffffffffffffffffffffffffffffffffffffff168173ffffffffffffffffffffffffffffffffffffffff1614156106d8576040517f08c379a00000000000000000000000000000000000000000000000000000000081526004016106cf9061118c565b60405180910390fd5b6106e1816108af565b50565b826005600082815260200190815260200160002060009054906101000a900473ffffffffffffffffffffffffffffffffffffffff1673ffffffffffffffffffffffffffffffffffffffff163373ffffffffffffffffffffffffffffffffffffffff161461075057600080fd5b60006004858154811061078c577f4e487b7100000000000000000000000000000000000000000000000000000000600052603260045260246000fd5b906000526020600020906003020190506107a581610bee565b6107ae57600080fd5b600254846107bc919061148b565b9350600060028583600101546107d291906112ad565b6107dc9190611303565b90506040516020016107ed906110f4565b604051602081830303815290604052805190602001208460405160200161081491906110dd565b60405160208183030381529060405280519060200120141561085757606360648261083f919061148b565b8261084a9190611334565b61085491906112ad565b90505b6108966040518060400160405280600681526020017f4e6f4e616d650000000000000000000000000000000000000000000000000000815250826109b8565b61089f82610c15565b505050505050565b600033905090565b60008060009054906101000a900473ffffffffffffffffffffffffffffffffffffffff169050816000806101000a81548173ffffffffffffffffffffffffffffffffffffffff021916908373ffffffffffffffffffffffffffffffffffffffff1602179055508173ffffffffffffffffffffffffffffffffffffffff168173ffffffffffffffffffffffffffffffffffffffff167f8be0079c531659141344cd1fd0a4f28419497f9722a3daafe3b4186f6b6457e060405160405180910390a35050565b6000808260405160200161098791906110dd565b6040516020818303038152906040528051906020012060001c9050600254816109b0919061148b565b915050919050565b60046040518060c00160405280848152602001838152602001600163ffffffff168152602001600354426109ec91906112ad565b63ffffffff168152602001600061ffff168152602001600061ffff1681525090806001815401808255809150506001900390600052602060002090600302016000909190919091506000820151816000019080519060200190610a50929190610c48565b506020820151816001015560408201518160020160006101000a81548163ffffffff021916908363ffffffff16021790555060608201518160020160046101000a81548163ffffffff021916908363ffffffff16021790555060808201518160020160086101000a81548161ffff021916908361ffff16021790555060a082015181600201600a6101000a81548161ffff021916908361ffff160217905550505060006001600480549050610b059190611334565b9050336005600083815260200190815260200160002060006101000a81548173ffffffffffffffffffffffffffffffffffffffff021916908373ffffffffffffffffffffffffffffffffffffffff160217905550600660003373ffffffffffffffffffffffffffffffffffffffff1673ffffffffffffffffffffffffffffffffffffffff1681526020019081526020016000206000815480929190610ba990611442565b91905055507f88f026aacbbecc90c18411df4b1185fd8d9be2470f1962f192bf84a27d0704b7818484604051610be1939291906111e7565b60405180910390a1505050565b6000428260020160049054906101000a900463ffffffff1663ffffffff1611159050919050565b60035442610c2391906112ad565b8160020160046101000a81548163ffffffff021916908363ffffffff16021790555050565b828054610c5490611410565b90600052602060002090601f016020900481019282610c765760008555610cbd565b82601f10610c8f57805160ff1916838001178555610cbd565b82800160010185558215610cbd579182015b82811115610cbc578251825591602001919060010190610ca1565b5b509050610cca9190610cce565b5090565b5b80821115610ce7576000816000905550600101610ccf565b5090565b6000610cfe610cf984611256565b611225565b905082815260208101848484011115610d1657600080fd5b610d218482856113ce565b509392505050565b600081359050610d3881611589565b92915050565b600081519050610d4d816115a0565b92915050565b600082601f830112610d6457600080fd5b8135610d74848260208601610ceb565b91505092915050565b600081359050610d8c816115b7565b92915050565b600081519050610da1816115b7565b92915050565b600060208284031215610db957600080fd5b6000610dc784828501610d29565b91505092915050565b6000806000806000806000806000806101408b8d031215610df057600080fd5b6000610dfe8d828e01610d3e565b9a50506020610e0f8d828e01610d3e565b9950506040610e208d828e01610d92565b9850506060610e318d828e01610d92565b9750506080610e428d828e01610d92565b96505060a0610e538d828e01610d92565b95505060c0610e648d828e01610d92565b94505060e0610e758d828e01610d92565b935050610100610e878d828e01610d92565b925050610120610e998d828e01610d92565b9150509295989b9194979a5092959850565b600060208284031215610ebd57600080fd5b600082013567ffffffffffffffff811115610ed757600080fd5b610ee384828501610d53565b91505092915050565b600060208284031215610efe57600080fd5b6000610f0c84828501610d7d565b91505092915050565b60008060408385031215610f2857600080fd5b6000610f3685828601610d7d565b9250506020610f4785828601610d7d565b9150509250929050565b610f5a81611368565b82525050565b6000610f6b82611286565b610f758185611291565b9350610f858185602086016113dd565b610f8e81611578565b840191505092915050565b6000610fa482611286565b610fae81856112a2565b9350610fbe8185602086016113dd565b80840191505092915050565b6000610fd7602683611291565b91507f4f776e61626c653a206e6577206f776e657220697320746865207a65726f206160008301527f64647265737300000000000000000000000000000000000000000000000000006020830152604082019050919050565b600061103d6005836112a2565b91507f6b697474790000000000000000000000000000000000000000000000000000006000830152600582019050919050565b600061107d602083611291565b91507f4f776e61626c653a2063616c6c6572206973206e6f7420746865206f776e65726000830152602082019050919050565b6110b981611386565b82525050565b6110c8816113b4565b82525050565b6110d7816113be565b82525050565b60006110e98284610f99565b915081905092915050565b60006110ff82611030565b9150819050919050565b600060208201905061111e6000830184610f51565b92915050565b600060c082019050818103600083015261113e8189610f60565b905061114d60208301886110bf565b61115a60408301876110ce565b61116760608301866110ce565b61117460808301856110b0565b61118160a08301846110b0565b979650505050505050565b600060208201905081810360008301526111a581610fca565b9050919050565b600060208201905081810360008301526111c581611070565b9050919050565b60006020820190506111e160008301846110bf565b92915050565b60006060820190506111fc60008301866110bf565b818103602083015261120e8185610f60565b905061121d60408301846110bf565b949350505050565b6000604051905081810181811067ffffffffffffffff8211171561124c5761124b611549565b5b8060405250919050565b600067ffffffffffffffff82111561127157611270611549565b5b601f19601f8301169050602081019050919050565b600081519050919050565b600082825260208201905092915050565b600081905092915050565b60006112b8826113b4565b91506112c3836113b4565b9250827fffffffffffffffffffffffffffffffffffffffffffffffffffffffffffffffff038211156112f8576112f76114bc565b5b828201905092915050565b600061130e826113b4565b9150611319836113b4565b925082611329576113286114eb565b5b828204905092915050565b600061133f826113b4565b915061134a836113b4565b92508282101561135d5761135c6114bc565b5b828203905092915050565b600061137382611394565b9050919050565b60008115159050919050565b600061ffff82169050919050565b600073ffffffffffffffffffffffffffffffffffffffff82169050919050565b6000819050919050565b600063ffffffff82169050919050565b82818337600083830152505050565b60005b838110156113fb5780820151818401526020810190506113e0565b8381111561140a576000848401525b50505050565b6000600282049050600182168061142857607f821691505b6020821081141561143c5761143b61151a565b5b50919050565b600061144d826113b4565b91507fffffffffffffffffffffffffffffffffffffffffffffffffffffffffffffffff8214156114805761147f6114bc565b5b600182019050919050565b6000611496826113b4565b91506114a1836113b4565b9250826114b1576114b06114eb565b5b828206905092915050565b7f4e487b7100000000000000000000000000000000000000000000000000000000600052601160045260246000fd5b7f4e487b7100000000000000000000000000000000000000000000000000000000600052601260045260246000fd5b7f4e487b7100000000000000000000000000000000000000000000000000000000600052602260045260246000fd5b7f4e487b7100000000000000000000000000000000000000000000000000000000600052604160045260246000fd5b6000601f19601f8301169050919050565b61159281611368565b811461159d57600080fd5b50565b6115a98161137a565b81146115b457600080fd5b50565b6115c0816113b4565b81146115cb57600080fd5b5056fea2646970667358221220427eaed1413aed7ced52cf718f7aea77f8dbad99b30226081a3fb669afff87b164736f6c63430008000033",
  "immutableReferences": {},
  "source": "pragma solidity >=0.7.0 <0.8.5;\r\n//SPDX-License-Identifier: UNLICENSED\r\n\r\nimport \"./zombiefactory.sol\";\r\n\r\n//Interface CryptoKitty\r\nabstract contract KittyInterface {\r\n  function getKitty(uint256 _id) virtual external view returns (\r\n    bool isGestating,\r\n    bool isReady,\r\n    uint256 cooldownIndex,\r\n    uint256 nextActionAt,\r\n    uint256 siringWithId,\r\n    uint256 birthTime,\r\n    uint256 matronId,\r\n    uint256 sireId,\r\n    uint256 generation,\r\n    uint256 genes\r\n  );\r\n}\r\n\r\ncontract ZombieFeeding is ZombieFactory {\r\n\r\n  /*\r\n  Goal : Verification appartenance zombie\r\n  @Params \r\n    - param 1 : uint : id du zombie a verifier \r\n  @Returns \r\n    - out :  bool : true si le zombie lui appartient sinon false \r\n  */\r\n  modifier onlyOwnerOf( uint _zombieId){\r\n        require(msg.sender == zombieToOwner[_zombieId]);\r\n        _;\r\n    }\r\n\r\n  //Dclaration interface kittyContract\r\n  KittyInterface kittyContract;\r\n  // Function pour definier l'address du contrat Kitty\r\n  function setKittyContractAddress(address _address) external onlyOwner {\r\n  kittyContract = KittyInterface(_address);\r\n  }\r\n\r\n  // Goal : verifier le temps qu'il reste au coolDown\r\n  function _triggerCooldown(Zombie storage _zombie) internal {\r\n    _zombie.readyTime = uint32(block.timestamp + coolDownTime);\r\n  }\r\n\r\n  // Goal : return true si le cooldown est termine (assez de temps ecoul depuis que le zombie a manger)\r\n  function _isReady(Zombie storage _zombie) internal view returns (bool){\r\n    return (_zombie.readyTime <= block.timestamp);\r\n  }\r\n\r\n  /*\r\n  Goal : combinaison du Dna du zombie passe en parametre avec une autre espece \r\n  In 6 Steps:\r\n      -Step 0 : Verification du propitaire du zombie\r\n      -Step 1 : Dclaration d'un 'zombie local' myZombie -> pointeur sur zombies[_zombieId]\r\n      -Step 2 : Verification que _targetDna  16 chiffre\r\n      -Step 3 : Dclaration newDna = (Dna actuelle + _targetDna pass en parametre)/2\r\n      -Step 4 : Verification si le hashage de _species = au hashage de \"kitty\"\r\n        -si oui => newDna se termine par 99\r\n        -sinon => newDna = step 3\r\n      -Step 5 : Appel de la fonction _createZombie avec en parametre un nom et le nouvel adn\r\n  Result : Nouveau zombie avec nouveau Dna\r\n  Author : Antoine Mousse\r\n  */\r\n  function feedAndMultiply(uint _zombieId, uint _targetDna, string memory _species) internal onlyOwnerOf(_zombieId){\r\n    Zombie storage myZombie = zombies[_zombieId];\r\n    require(_isReady(myZombie));\r\n    _targetDna = _targetDna % dnaModulus;\r\n    uint newDna = (myZombie.dna + _targetDna) / 2;\r\n    if (keccak256(abi.encodePacked(_species)) == keccak256(abi.encodePacked(\"kitty\"))) {\r\n      newDna = newDna - newDna % 100 + 99;\r\n    }\r\n    _createZombie(\"NoName\", newDna);\r\n    _triggerCooldown(myZombie);\r\n  }\r\n\r\n\r\n   /*\r\n    Goal : Recuperer Dna kitty et crr un nouveau zombie\r\n    In 4 Steps:\r\n        -Step 0 : declaration kittyDna\r\n        -Step 1 : Rcuperation du kittyDna avec l'appel de la fonction getKitty et du parametre _kittyId\r\n        -Step 2 : Cration d'un noveau zombie avec l'appel de la fonction feedAndMutiply\r\n    Result : Nouveau zombie ayant manger un 'kitty'\r\n    Author : Antoine Mousse\r\n    */\r\n  function feedOnKitty(uint _zombieId, uint _kittyId) public {\r\n    uint kittyDna;\r\n    (,,,,,,,,,kittyDna) = kittyContract.getKitty(_kittyId);\r\n    feedAndMultiply(_zombieId, kittyDna, \"kitty\");\r\n  }\r\n\r\n}",
  "sourcePath": "C:\\Users\\antoi\\OneDrive\\Bureau\\CryptoZombie_Truffle\\contracts\\zombiefeeding.sol",
  "compiler": {
    "name": "solc",
    "version": "0.8.0+commit.c7dfd78e.Emscripten.clang"
  },
  "schemaVersion": "3.4.3",
  "updatedAt": "2021-11-04T09:47:02.401Z",
  "devdoc": {
    "kind": "dev",
    "methods": {
      "owner()": {
        "details": "Returns the address of the current owner."
      },
      "renounceOwnership()": {
        "details": "Leaves the contract without owner. It will not be possible to call `onlyOwner` functions anymore. Can only be called by the current owner. NOTE: Renouncing ownership will leave the contract without an owner, thereby removing any functionality that is only available to the owner."
      },
      "transferOwnership(address)": {
        "details": "Transfers ownership of the contract to a new account (`newOwner`). Can only be called by the current owner."
      }
    },
    "version": 1
  },
  "userdoc": {
    "kind": "user",
    "methods": {},
    "version": 1
  }
}